:020000040800F2
:10000000101A002045010008EF250008A72300086A
:10001000ED25000859070008DD2F0008000000004A
:10002000000000000000000000000000392A000865
:10003000FB07000800000000C5270008E12B0008AE
:100040005F0100085F0100085F0100085F01000810
:100050005F0100085F0100085F0100085F01000800
:100060005F0100085F0100085F0100085F010008F0
:100070005F010008B90700085F010008C507000814
:100080005F0100085F0100085F0100085F010008D0
:100090005F0100085F0100085F0100085F010008C0
:1000A0005F0100085F0100085F0100085F010008B0
:1000B0005F010008352C00085F0100085F0100089F
:1000C0005F0100085F0100085F0100085F01000890
:1000D0005F010008AD2F00085F010008C52F000870
:1000E0005F0100085F0100085F0100085F01000870
:1000F0005F0100085F0100085F0100085F01000860
:100100005F0100085F0100085F0100085F0100084F
:100110005F0100085F0100085F0100085F0100083F
:100120005F0100085F0100085F0100085F0100082F
:10013000DFF80CD000F058FA00480047CD3A00082C
:10014000101A00200648804706480047FEE7FEE7F1
:10015000FEE7FEE7FEE7FEE7FEE7FEE7FEE7FEE777
:10016000332C000831010008202A04DB203A21FA50
:1001700002F00021704721FA02F3D040C2F12002C0
:10018000914008431946704740EA01039B0703D09A
:1001900009E008C9121F08C0042AFAD203E011F8C6
:1001A000013B00F8013B521EF9D27047D2B201E088
:1001B00000F8012B491EFBD270470022F6E710B56C
:1001C00013460A4604461946FFF7F0FF204610BDC5
:1001D00030B504460020034600E05B1C934203D286
:1001E000E05CCD5C401BF8D030BD30B50B4601461D
:1001F00000202022012409E021FA02F59D4205D3C6
:1002000003FA02F5491B04FA02F52844151EA2F16F
:100210000102F1DC30BD2DE9F05F05460020924679
:100220009B4688460646814640241BE028464146B8
:1002300047462246FFF798FF53465A46C01A914157
:1002400010D311461846224600F0E0F92D1A67EB4C
:1002500001084F4622460120002100F0D7F917EB94
:1002600000094E41201EA4F10104DFDC484631465E
:100270002A464346BDE8F09F2DE9FE4F804681EABD
:100280000300C00F0C46009021F0004123F0004510
:10029000B8EB0200A94105D24046214690461C46D3
:1002A0000B46024623F00040104347D0270DC7F30A
:1002B0000A00C3F30A510290401A019040286BDAF9
:1002C000C3F3130040F4801B0098924620B1002332
:1002D000D2EB030A63EB0B0B01985946C0F14002C5
:1002E000504600F093F906460D4650465946019A8D
:1002F00000F09BF910EB08006141002487EA1152DD
:1003000084EAE7731A4340D0009A62B3019A012A43
:100310004FEA075215DC001B61EB02014FF000426F
:1003200002EA0752CDE90042001C41F58011324635
:100330002B4600F09BF903B0BDE8F08F4046214604
:10034000F9E7001B61EB0201001C41F58013001866
:100350005B412018A2F5001747EB030140EAD57076
:10036000B6196D4111E06D084FEA360645EAC075D1
:100370004FEA0752001B61EB0201001C41F580119E
:1003800049084FEA30000019514132462B4603B06C
:10039000BDE8F04F00F05BB9009801224000002357
:1003A000D0EB020263EBE073009821464FEAE07461
:1003B000B8EB000061EB0401E9E783F000435BE781
:1003C00081F0004158E72DE9FE4F81EA030404F073
:1003D000004421F0004100944FF0000B23F0004353
:1003E00050EA01045ED052EA03045BD0C3F30A541E
:1003F000C1F30A552C44A4F2F3340194A0FB025437
:10040000C1F3130141F48011C3F3130343F48013C8
:1004100001FB024400FB034E840A970A44EA81541C
:1004200047EA8357A4FB076802958D0A05FB0785F9
:100430004FEA932C04FB0C542705029D4FEA065803
:1004400047EA1637B5EB08056EEB070C870E920EE0
:1004500047EA811742EA8312A7FB0201B6EB0B01C0
:1004600064EB00042B0D43EA0C335E1844EB1C5084
:10047000DA465146E7FB0201C5F313044FEA0B339A
:1004800043EA14534FEA0432019C43EA0603A4F101
:100490000C040294009CCDE900B400F0E7F803B02E
:1004A000BDE8F08F00200146F9E72DE9F04D81EA23
:1004B000030404F0004B21F0004514464FF0000AFD
:1004C00023F0004150EA050220D054EA01021DD079
:1004D000C5F30A570246C5F31303C1F31300C1F372
:1004E0000A5640F4801543F48013A7EB0608101B4E
:1004F000D64608F2FD3873EB050002D308F1010877
:1005000001E092185B41B8F1000F03DA00200146C8
:10051000BDE8F08D00204FF48011064684460EE0C1
:10052000171B73EB050705D3121B63EB050306438B
:100530004CEA010C49084FEA300092185B4150EA3E
:100540000107EDD152EA030012D082EA040083EAE7
:100550000501084305D0101BAB4106D20122002340
:1005600006E000224FF0004302E06FF0010253105A
:100570001AEB06004CEB085110EB0A0041EB0B01A3
:10058000BDE8F04D00F063B8C1F30A52C1F31301A6
:1005900040F2FF3341F480119A4202DA0020014612
:1005A000704740F233439A42A2F2334202DC524295
:1005B000FFF7DABD00F02AB830B5041E71F100046F
:1005C00004DB4FF00044404264EB0101141E73F160
:1005D000000405DB1C464FF00043524263EB04036A
:1005E000994208BF904230BD064C074D06E0E068D6
:1005F00040F0010394E8070098471034AC42F6D36A
:10060000FFF79AFD403D0008603D0008202A04DB0A
:10061000203A00FA02F1002070479140C2F1200315
:1006200020FA03F3194390407047202A06DBCB17CA
:10063000203A41FA02F043EAE07306E041FA02F39D
:10064000D040C2F12002914008431946704710B5CE
:10065000141E73F1000408DA401C41F100019218E5
:100660005B411A4301D120F0010010BD2DE9F04D8E
:1006700092469B4611B1B1FA81F202E0B0FA80F2E3
:1006800020329046FFF7C2FF04460F4640EA0A00B8
:1006900041EA0B0153465A46084313D0114653EA28
:1006A000010019D0C8F140025046FFF75DFD054634
:1006B0000E46504659464246FFF7A8FF084305D06C
:1006C000012004E020463946BDE8F08D00200543B6
:1006D00046EAE0762C4337430A986305E40AA0EB28
:1006E00008000022FD0A44EA47540A3002D50020DF
:1006F0000146E9E7010510196941DDE908450019DE
:100700006941BDE8F04DA2E770B54FF0FF3200211E
:10071000104C19E063189B78834214DB6518AB78A2
:10072000834214D0227803E0A3185E789E70521E94
:100730008A42F9DCA8702078401C2070054802F03D
:10074000EDF9002203E0491C23788B42E2DC1046DD
:1007500070BD00001C000020FEE700007CB50520F5
:100760008DF804000120124D8DF8000000244FF098
:100770007046641CB44219D200221021284600F0B1
:10078000ADFB6423012201A90A4801F005F86423A6
:1007900001226946074800F055FF01221021284632
:1007A00000F09CFB9DF80000C007E2D17CBD00007A
:1007B0000008014060000020014800F0E3B800009C
:1007C000CC090020014800F0DDB8000088090020B5
:1007D00030B590F840500124AC40C56B6C600468A3
:1007E00063604368102B036803D099600068C2609F
:1007F00030BD9A600068C16030BD7047704710B569
:100800000422002102F01EF8002010BD10B590F85F
:1008100021100022022905D00421816380F82020C4
:10082000012010BD01680B6823F00E030B60016806
:100830000B6823F001030B6090F84030012404FAA8
:1008400003F1C36B596080F8214080F820201046E6
:1008500010BD00002DE9F05F90F82110002402295E
:1008600003D004218163012485E001680A6822F035
:100870000E020A6001680A6822F001020A603F4E17
:100880003E4FB215DFF8F4C0DFF8F090DFF8ECA0CF
:10089000DFF8E8B0DFF8E4E00168783F1301150203
:1008A000ACF1640CA9F15009AAF13C0AABF1280B98
:1008B000AEF1140E4FF48018B14227D9B9420ED0D0
:1008C000614512D049451DD0514518D0594518D021
:1008D000714501D1424615E0294EB14201D10122B4
:1008E00010E0274E1436B14201D110220AE0244E06
:1008F0002836B14206D0224A3C32914201D11A46F2
:1009000000E02A461E49091F0A602BE0B94213D0B5
:10091000614517D0494522D051451DD059451DD0BC
:10092000714501D142461AE0B14202D14FF08072C6
:1009300015E0134EB14201D1012210E0104E1436E1
:10094000B14201D110220AE00D4E2836B14206D044
:100950000B4A3C32914201D11A4600E02A4607492F
:1009600080394A60012180F82110002180F8201090
:10097000416B01B188472046BDE8F09F80000240EE
:10098000080402402DE9F05FC16B0B6801680A683A
:10099000046C4FF0040808FA04F8844D844E854F27
:1009A000DFF814C2DFF81492DFF814A2DFF814B2F3
:1009B000DFF814E218EA030F65D05FEA427862D5E7
:1009C0000A68920603D40A6822F004020A60DFF87B
:1009D000F0814FF48062016808F1140813011402D9
:1009E000414524D9A9420DD0B1420FD0B9421AD005
:1009F000614515D0494515D0514501D1120312E08A
:100A0000594501D104220EE0714501D140220AE08E
:100A10006D4D1435A94206D06B4A2832914201D15E
:100A20001A4600E022466749091F0A6029E0A942E8
:100A300013D0B14215D0B94220D061451BD04945F1
:100A40001BD0514502D14FF4800217E0414502D13D
:100A50004FF0806212E0594501D104220EE0714549
:100A600001D140220AE0584D1435A94206D0564A19
:100A70002832914201D11A4600E022464B490839FA
:100A80004A60C16A71E04FF0020808FA04F818EAF7
:100A9000030F70D05FEA82786DD50A68920606D49B
:100AA0000A6822F00A020A60012180F82110DFF8AA
:100AB00010814FF40072016808F114081301140248
:100AC000414524D9A9420DD0B1420FD0B9421AD024
:100AD000614515D0494515D0514501D1120312E0A9
:100AE000594501D102220EE0714501D120220AE0D0
:100AF000354D1435A94206D0334A2832914201D1EE
:100B00001A4600E022462F49091F0A6029E0A9423F
:100B100013D0B14215D0B94220D061451BD0494510
:100B20001BD0514502D14FF4001217E0414502D1CC
:100B30004FF0007212E0594501D102220EE07145DA
:100B400001D120220AE0204D1435A94206D01E4AC8
:100B50002832914201D11A4600E022461349083951
:100B60004A60002180F82010816A00291CD0BDE86D
:100B7000F05F0847FFE70825A5401D4214D0120783
:100B800012D50A6822F00E020A6090F84020C36B6A
:100B9000012101FA02F25A60816380F821100021DC
:100BA00080F82010016BE0E7BDE8F09F08000240EC
:100BB0001C00024030000240440002405800024045
:100BC0006C000240080402401C04024030B560B1D1
:100BD0001A4B01681422994209D2194B0B44B3FBFA
:100BE000F2F292000264174A0AE0012030BD134B72
:100BF0005B420B44B3FBF2F2920002640F4A083AE4
:100C0000C263022280F821200A6843F6F0739A43F7
:100C1000F0E901342343D0E902452C43234304691E
:100C20002343446923438469234313430B60002116
:100C30004163012242770177084630BD0804024033
:100C4000F8FFFDBF0000024070B5044690F8200098
:100C5000002501280CD0012084F8200094F82160A0
:100C60000020012E06D084F820000225284670BD01
:100C7000022070BD022684F82160A0632068066807
:100C800026F0010606602046FFF7A2FDE06A002874
:100C90002068016802D041F00E0106E021F0040155
:100CA00001602068016841F00A0101602068016864
:100CB00041F001010160D9E770B5044600F014F974
:100CC0000546601C02D004480078044400F00CF98A
:100CD000401BA042FAD370BD080000202DE9F84F58
:100CE000DFF8C091002409F1040A0AF1040B23463D
:100CF0004FF00F080BF1040ECCE00127A7403A405B
:100D0000BA4272D1DFF8A0C14D68A5EB0C0665456B
:100D10002BD00DDC032D34D005DC35B3012D19D0DB
:100D2000022D2FD11BE0112D16D0122D2AD119E042
:100D3000B6F5881F19D006DCB6F5803F15D0B6F59C
:100D4000801F1FD111E0B6F5001F0ED0B6F5041FAD
:100D500018D10AE0CB6815E0CB681B1D12E0CB6808
:100D600008330FE0CB680C330CE08B682BB1012B00
:100D70004FF0080303D0476104E0042302E0076159
:100D800000E00023FF2A01D8064601E000F1040636
:100D90004FEA840501D9A5F12005376808FA05FC5A
:100DA00027EA0C0703FA05F547EA050737604D689F
:100DB000ED006ED53D4DAE6946F00106AE61AD6900
:100DC00024F0030605F001050095394D7719BE683A
:100DD000A5072D0F08FA05FC26EA0C06DFF8D4C09B
:100DE000604503D14FF0000C25E052E0DFF8C8C0A9
:100DF000604502D14FF0010C1DE0DFF8C0C0604536
:100E000002D14FF0020C16E0DFF8B4C0604502D109
:100E10004FF0030C0FE0DFF8ACC0604502D14FF09B
:100E2000040C08E0DFF8A0C0604502D14FF0050CCB
:100E300001E04FF0060C0CFA05FC4CEA060CC7F872
:100E400008C04D68D9F80060ED034D4601D5164342
:100E500000E096432E604D68DAF80060AD03554619
:100E600001D5164300E096432E604D68DBF8006024
:100E7000ED025D4601D5164300E096432E604D68B5
:100E8000DEF80060AD02754601D5164300E09643DA
:100E90002E60641C0A6832FA04F57FF42EAFBDE8B8
:100EA000F88F000000040140000011100010024003
:100EB0000000014000080140000C0140001001400A
:100EC0000014014000180140001C0140C26821EAE2
:100ED00002030A4043EA0241016170470AB101611D
:100EE00070470904FBE70000014880687047000074
:100EF0000800002002488168027811448160704730
:100F000008000020074810B5016841F01001016099
:100F1000032000F075F8002000F006F800F024F837
:100F2000002010BD0020024070B50D4D04464FF466
:100F30007A712878B1FBF0F00A490968B1FBF0F04A
:100F400000F0CCFD48B9102C07D200222146501EDB
:100F500000F036F800206C6070BD012070BD00000C
:100F600008000020140000200C4808B5816941F0F9
:100F700001018161816901F001010091C16941F0C4
:100F80008051C161C069064900F0805000904868F6
:100F900020F0E06040F08060486008BD0010024032
:100FA00000000140002809DB00F01F0201219140F0
:100FB0004009800000F1E020C0F8001170470000F7
:100FC000F0B40E4B1B68C3F30223C3F10704042CD7
:100FD00000D904241D1D072D01D2002300E0DB1ED3
:100FE000012606FA04F56D1E0D409D409E40761EBA
:100FF000164045EA0601F0BC02F04AB80CED00E0EC
:10100000064A00F0070110684FF6FF03184040EA57
:101010000120034908431060704700000CED00E018
:101020000000FA052DE9F0470D46040067D0DFF80F
:101030001881D8F8000000F00700A8420CD2D8F8B8
:10104000001021F007012943C8F80010D8F800006B
:1010500000F00700A84252D120683C4E810712D50B
:10106000400703D5706840F4E060706020780007A6
:1010700003D5706840F4605070607068A16820F01B
:10108000F000084370602078C00727D0606801280E
:1010900010D03168022810D0890700292FDA716832
:1010A00021F0030101437160FFF71EFF074641F283
:1010B00088390CE031688903EFE78901EDE7FFF734
:1010C00013FFC11B494502D90320BDE8F0877068B2
:1010D000616800F00C00B0EB810FF0D1D8F800107F
:1010E000404601F00701A9420BD9016821F0070130
:1010F00029430160006800F00700A84201D00120E8
:10110000E3E72078400705D57068E16820F4E060E7
:10111000084370602078000706D57068216920F4C4
:10112000605040EAC100706000F038F87168084A09
:10113000C1F30311515CC8400649086006480068C5
:10114000FFF7F2FE0020C0E700200240001002403E
:10115000253D0008140000200C000020044805492B
:1011600000684968044AC1F30221515CC8407047D5
:101170001400002000100240353D000804480549D5
:1011800000684968044AC1F3C221515CC8407047F5
:101190001400002000100240353D000812A085B068
:1011A0000FC88DE80F0014A0144B00680490596814
:1011B000134801F00C02042A10D0082A0ED1C1F302
:1011C0008342C9031DF802000AD5596804AAC1F375
:1011D0004041515C0A4A5043B0FBF1F005B0704702
:1011E00008494843FAE70000020304050607080916
:1011F0000A0B0C0D0E0F101001020000001002402F
:1012000000127A0000093D002DE9F84F04006FD06C
:101210002078BE4DC00747D06868C0F38100012820
:1012200007D06868C0F38100022809D16868C0034C
:1012300006D52868800337D560680028E7D033E0FA
:101240006068B0F5803F0BD010B1B0F5A02F11D081
:10125000286820F480302860286820F4802002E08C
:10126000286840F480302860606888B1FFF73CFE51
:10127000064609E0286840F480202860F0E7FFF780
:1012800033FE801B642873D828688003F7D50BE0F1
:10129000FFF72AFE064604E0FFF726FE801B6428BF
:1012A000F1D828688003F7D42078DFF864828007BB
:1012B0004FF0010A4FF0000939D5686810F00C0FA3
:1012C00007D06868C0F38100022809D16868C003AC
:1012D00006D42868800714D52069012808D110E0B9
:1012E0002069B0B1C8F800A0FFF7FEFD064605E092
:1012F00007E1FFF7F9FD801B0228C4D828688007A2
:10130000F7D52868616920F0F80040EAC10028603C
:101310000DE0C8F80090FFF7E7FD064604E0FFF790
:10132000E3FD801B022823D828688007F7D42078A3
:1013300000072CD57748A169D9B1C0F800A0FFF704
:10134000D3FD064604E0FFF7CFFD801B02280FD82F
:10135000686A8007F7D570484FF4FA510068B0FB0F
:10136000F1F0009000BF0098411E0091FAD20EE00B
:101370007CE0C0F80090FFF7B7FD064604E0FFF7F9
:10138000B3FD801B022871D8686A8007F7D42078E3
:1013900040075BD5E8690027C00008D4E86940F041
:1013A0008050E861E869012700F0805000905B48B8
:1013B0000168C90511D40168834641F48071016058
:1013C000FFF792FD064604E0FFF78EFD801B6428C0
:1013D0004CD8DBF80000C005F6D5E06801280AD03B
:1013E00008B1052813D0286A20F001002862286A75
:1013F00020F0040002E0286A40F001002862E06862
:1014000041F2883B88B1FFF76FFD064609E0286A84
:1014100040F004002862EEE7FFF766FD811B5945A6
:101420005BD8286A8007F7D50BE0FFF75DFD06461D
:1014300004E0FFF759FD811B59454ED8286A800703
:10144000F7D41FB1E86920F08050E861E069A8B3E3
:101450006968C1F38101022946D00228484606D0B6
:10146000C8F86000FFF740FD044639E035E0474624
:10147000C8F86000FFF738FD064604E0FFF734FDCA
:10148000801B022829D828688001F7D4206AB0F58B
:10149000803F05D16868A16820F400300843686087
:1014A000D4E908010843696821F4741108436860AD
:1014B000C7F860A0FFF718FD044605E023E0FFF73A
:1014C00013FD001B022808D828688001F7D51AE010
:1014D000FFF70AFD001B022802D90320BDE8F88FA0
:1014E00028688001F4D40EE00128F7D06868226AE9
:1014F00000F48031914204D1616A00F47010884296
:1015000001D00120EAE70020E8E7000000100240D7
:10151000000042428004424214000020007000405B
:1015200070B5040009D0606A002540B1256165618D
:10153000A56294F8510040B10CE0012070BD6068D4
:10154000B0F5827FF4D0E561F2E784F85050204690
:1015500000F040F8022084F851002068016821F072
:1015600040010160A088218900F4827001F40441E7
:101570000843A18901F400610843217C01F00201C4
:101580000843217D01F001010843218B01F4007122
:101590000843217F01F03801084394F8201001F03E
:1015A00080010843218D01F400510843216808603F
:1015B000A069042101EA1040216848602068C169DF
:1015C00021F40061C1616565012084F851000020AB
:1015D00070BD000030B585B00024009401940294E1
:1015E000039400681449884223D11448816941F466
:1015F00080518161816901F480510491816941F0D8
:101600000401816180690E4D00F004000490A02067
:101610000090022001900320039069462846FFF7BE
:101620005DFB4020CDE90004694628460294FFF79F
:1016300055FB05B030BD00000030014000100240F5
:10164000000801402DE9F84F0446406800261D4679
:10165000904689464FF0040BB0F5827F01D1A06817
:1016600088B194F85000012817D0012084F8500068
:10167000FFF73AFC074694F851004FF0000A0128A2
:101680000DD002267EE084F851B0009313460A463E
:10169000204600F036F9BDE8F88F0220FBE7B9F1EB
:1016A000000F6ED0B8F1000F6BD084F851B0C4F8C1
:1016B00054A0C4F83890A4F83C80A4F83E80C4F844
:1016C00030A0A4F834A0A4F836A0C4F840A0C4F810
:1016D00044A0A068B0F5004F09D12068016821F04E
:1016E000400101602068016821F4804101602068A8
:1016F0000168490603D4016841F040010160E068D7
:10170000B8B131E020688168C90709D0007BA16BBE
:101710000870A06B401CA063E08F401EE08708E0CB
:10172000FFF7E2FBC01BA84202D3681C01D031E0E6
:101730007DB3E08F0028E5D119E020688168C907F2
:1017400009D0C068A16B0880A06B801CA063E08FEB
:10175000401EE08708E0FFF7C7FBC01BA84202D38A
:10176000681C01D016E0A5B1E08F0028E5D13A460B
:101770002946204601F027F808B120206065606DF9
:1017800000B10126012084F8510084F850A03046B1
:1017900081E7FFE70326F5E72DE9F84F044690F8C7
:1017A000500000261D469046894601280ED04FF075
:1017B000010B84F850B0FFF797FB074694F85100EF
:1017C0004146B246012804D0022694E00220BDE83A
:1017D000F88FB9F1000F74D0B8F1000F71D0032069
:1017E00084F85100C4F854A0C4F83090A4F83480B0
:1017F000A4F83680C4F838A0A4F83CA0A4F83EA011
:10180000C4F844A0C4F840A0A068B0F5004F09D1C6
:101810002068026822F0400202602068026842F4F8
:101820008042026020680268520603D4026842F0D7
:1018300040020260E068B0F5006F606803D028B332
:10184000012923D03FE008B101291BD1206B216879
:101850000088C86006E020688168890709D5216B87
:101860000988C160206B801C2063E08E401EE086EA
:1018700008E0FFF739FBC01BA84202D3681C01D067
:1018800030E075B3E08E0028E5D11FE0206B2168C1
:101890000078087306E020688168890709D5216B04
:1018A00009780173206B401C2063E08E401EE086A7
:1018B00009E0FFF719FBC01BA84203D3681C02D044
:1018C00010E017E06DB1E08E0028E4D13A462946D9
:1018D000204600F0A6FF08B120206065A06818B17E
:1018E00006E0FFE7032606E02068C16880680090F4
:1018F000606D00B1012684F851B084F850A03046E4
:1019000065E72DE9F84F044690F8500001250A9E3E
:101910001F4692468B464FF0000801280ED001204A
:1019200084F85000FFF7E0FA814694F851006168AE
:1019300001280CD0B1F5827F07D102E00220BDE87A
:10194000F88FA16809B9042801D00220B6E0BBF1E4
:10195000000F27D0BAF1000F24D01FB394F8510024
:10196000042802D0052084F8510000206065C4F8E6
:1019700038A0E787A787C4F830B0E786A786206439
:10198000606420680168490603D4016841F04001A1
:101990000160E068B0F5006F606805D0E8B3012F22
:1019A00043D079E0012089E008B1012F34D1206BC8
:1019B00021680088C860206B801C2063E08E401E78
:1019C000E08629E02068816889070DD5E18E59B14C
:1019D000012D09D1216B0988C160206B801C206317
:1019E000E08E401EE086002520688168C9070BD084
:1019F000E18F49B1C068A16B0880A06B801CA06317
:101A0000E08F401EE0870125FFF76EFAA0EB09008A
:101A1000B04201D3701C50D100E006E0E08E0028F7
:101A2000D0D1E08F0028CDD13CE0206B2168007838
:101A30000873206B401C2063E08E401EE0862BE084
:101A40002068816889070DD5E18E59B1012D09D132
:101A5000216B09780173206B401C2063E08E401ECF
:101A6000E086002520688168C9070BD0E18F49B165
:101A7000C068A16B0870A06B401CA063E08F401E83
:101A8000E0870125FFF730FAA0EB0900B04202D34E
:101A9000701C01D011E086B1E08E0028D0D1E08F1B
:101AA0000028CDD14A463146204600F0BAFE38B172
:101AB00020204FF00108606508E00320804605E023
:101AC000A06818B92068C16880680090012084F877
:101AD0005100002084F85000404630E710B5401E09
:101AE000B0F1807F01D3012010BD4FF0E024606190
:101AF0000F21601701F0CCFA0020A06107202061BF
:101B0000002010BD7047704770B590F83C20012A46
:101B10002CD0012580F83C50022280F83D2002683C
:101B20005368946823F070060B6833435360104B7E
:101B300002689A420ED00F4B9A420BD0B2F1804FFE
:101B400008D00D4B9A4205D00C4B9A4202D00C4B58
:101B50009A4204D1496824F080031943916080F8C7
:101B60003D50002180F83C10084670BD022070BD39
:101B7000002C0140003401400004004000080040F7
:101B8000000C004010B5040003D094F83D0010B1E3
:101B900007E0012010BD002084F83C00204600F042
:101BA0001FF8022084F83D00211D206801F048F84C
:101BB000012084F8460084F83E0084F83F0084F851
:101BC000400084F8410084F8420084F8430084F81F
:101BD000440084F8450084F83D00002010BD00005A
:101BE00008B500680B49884212D10B48C16941F021
:101BF0000201C161C069002200F00200009011469C
:101C00001D20FFF7DDF9BDE808401D20FFF7CAB928
:101C100008BD0000000400400010024090F83D1094
:101C2000012901D001207047022180F83D10016890
:101C3000CA6842F00102CA6000680E4988420ED0AC
:101C40000D4988420BD0B0F1804F08D00B49884233
:101C500005D00B49884202D00A49884204D18168E4
:101C600001F00701062903D0016841F0010101607C
:101C700000207047002C0140003401400004004067
:101C800000080040000C004070B5044690F83C008D
:101C9000012817D0012584F83C50022084F83D002B
:101CA0002068826822F0770222F47F42826008680E
:101CB000502830D00DDC20284DD005DC98B31028FA
:101CC0003BD148E0022070BD302844D0402834D1B8
:101CD00039E0602828D0702806D0B0F5805F2CD07D
:101CE000B0F5005F29D10AE0CB68D1E90121206875
:101CF00000F0ECFF2068816841F0770109E0CB68D3
:101D0000D1E90121206800F0E1FF2068816841F4F9
:101D10008041816011E0CA684968206800F0E8FFEE
:101D20005021206807E016E0CA684968206800F082
:101D3000F0FF6021206800F0D3FF84F83D500020C0
:101D400084F83C0070BDCA684968206800F0D0FF84
:101D500040212068EFE7226801461046EBE7704714
:101D600070B50446006801694FF00005C943890752
:101D700015D4C168C943890711D4E91E0161012046
:101D80002077206880698007204602D0FFF7E7FFB0
:101D900004E000F098F8204600F096F825772068D7
:101DA0000169C943490717D4C168C943490713D416
:101DB0006FF004010161022020772068806910F42F
:101DC000407F204602D0FFF7CAFF04E000F07BF816
:101DD000204600F079F8257720680169C943090792
:101DE00016D4C168C943090712D46FF00801016114
:101DF000042020772068C0698007204602D0FFF7C2
:101E0000AEFF04E000F05FF8204600F05DF82577B3
:101E100020680169C943C90617D4C168C943C90606
:101E200013D46FF010010161082020772068C06989
:101E300010F4407F204602D0FFF791FF04E000F04D
:101E400042F8204600F040F8257720680169C94330
:101E5000C90708D1C168C943C90704D1891E0161F6
:101E6000204600F033F820680169C943090609D407
:101E7000C168C943090605D46FF08001016120469D
:101E8000FFF740FE20680169C943490609D4C168CB
:101E9000C943490605D46FF040010161204600F0B6
:101EA0002FF820680169C94389060BD4C168C9436A
:101EB000890607D46FF0200101612046BDE870401B
:101EC000FFF721BE70BD70477047000010B5006875
:101ED000084988420CD1084C2068401C2060B0F5AD
:101EE0007A7F05D904210548FEF7F0FF0020206025
:101EF00010BD000000040040040000200008014064
:101F0000704710B504460068416994F83920C1F360
:101F1000C011212A0BD151B1416921F080014161E9
:101F2000206B08B1FEF772FC204600F062FF2068CB
:101F3000416994F83A20C1F38011222A0BD151B1A2
:101F4000416921F040014161606B08B1FEF75EFC20
:101F5000204600F040FF002010BD704770B50268B9
:101F600004461068D168536910F00F0F52D003F087
:101F7000010501F490762E435FD0C20705D0CA0553
:101F800003D5E26B42F00102E263420705D5DA07AE
:101F900003D0E26B42F00202E263820705D5DA0762
:101FA00003D0E26B42F00402E263020707D501F0BE
:101FB00020022A4303D0E26B42F00802E263E26BA4
:101FC000002A33D0800604D5880602D5204600F0CA
:101FD00019FF20684069E16BC0F38010090700D445
:101FE00028B3204600F0F7FE2068416949061AD55B
:101FF000416921F040014161606BA0B12D4941630D
:10200000606BFEF727FC002810D0606B416BBDE8C9
:1020100070400847830610D58B060ED52046BDE8D4
:10202000704000F0EFBE2046FFF797FF70BD2046DE
:10203000FFF793FF0020E06370BD03062BD50B066E
:1020400029D594F839002128F6D1A068B0F5805F31
:1020500001D12069B0B1206A411C21622168007859
:102060004860E08C401E0004000CE084E4D120684D
:10207000C16821F08001C1602068C16841F0400161
:10208000C16070BD206A0088C0F308005060206AFB
:10209000801C2062E5E74006F3D54806F1D5D168FB
:1020A000204621F04001D160202184F8391000F051
:1020B00079F970BD372D000870B5040004D094F88C
:1020C0003900002510B106E0012070BD84F83850B9
:1020D000204600F023F8242084F839002068C168E5
:1020E00021F40051C160204600F0D2FE2068016951
:1020F00021F4904101612068416921F02A01416188
:102100002068C16841F40051C160E563202084F873
:10211000390084F83A00002070BD00002DE9F0413C
:1021200086B0002500950195029503950446016847
:102130004348DFF808C102220323071580266145C2
:1021400039D1816941F480418161816901F4804123
:102150000491816941F0040181618069DFF8E480C4
:1021600000F0040004901002CDE9000269460393D8
:102170004046FEF7B3FDCDE900756946404602953D
:10218000FEF7ACFD314F3048C7E90005C7E90256FC
:102190003D617D61BD613846FD61FEF717FD08B107
:1021A000FEF72CFB67630022114625207C62FEF7B8
:1021B00007FF25203DE0DFF898C061453BD1C169AC
:1021C00041F48021C161C16901F4802104918169D8
:1021D00041F0080181618069CDE9007200F00800DA
:1021E000CDE903301B4F69463846FEF777FDF814FA
:1021F000CDE90005694638460295FEF76FFD134F9D
:10220000114844372838C7E90005C7E902563D613F
:102210007D61BD613846FD61FEF7D8FC08B1FEF76F
:10222000EDFA67630022114627207C62FEF7C8FEA4
:102230002720FEF7B7FE06B0BDE8F0810038014068
:1022400000100240000801405800024088090020A8
:1022500000480040000C014037B5044690F83A00B1
:1022600082B0134620283AD1039AAAB3A3B394F8B4
:102270003800012833D0012084F83800A262A385F9
:102280000025E563222084F83A00616B15488862D6
:10229000616B1548C862616B14480863606B4563E5
:1022A0002168606B091DFEF7CFFC2068016841685A
:1022B000009184F83850C16841F48071C160206891
:1022C000416941F0010141612068416941F04001EB
:1022D0004161002005B030BDFFE70120FAE7022090
:1022E000F8E70000912D0008CD2D0008472D0008CB
:1022F000704770472DE9F843044690F839001F46AF
:1023000015460E4620284BD1C6B1BDB194F8380011
:10231000012845D0012084F838004FF00008C4F8A7
:102320003C80212084F83900FEF7DEFDA58481463B
:10233000E584A068B0F5805F03D004E00120BDE82B
:10234000F883206920B13546002684F838800EE0F5
:102350000025FAE78021204600F0F6FDA0B9ADB1D6
:1023600015F8010B21684860E08C401EE084E08C89
:102370004B464FF0000200970028EBD14FF0400190
:10238000204600F0E1FD30B10320D8E736F8020B1B
:10239000C0F30800E6E7202084F839000020CEE7EB
:1023A0000220CCE77047FEE70D4808B5416941F0CF
:1023B000010141614069002200F0010000901146D6
:1023C0000D20FEF7FDFD0D20FEF7ECFD002211466D
:1023D0000F20FEF7F5FDBDE808400F20FEF7E2BD37
:1023E000001002402DE9F04385B0002433480094EA
:1023F000019402940394816941F0800181618169B3
:1024000001F080010491816941F0100181618169CD
:1024100001F010010491816941F004018161816939
:1024200001F004010491816941F008018161806932
:10243000234F00F0080040F2FF7504900022294667
:102440003846FEF74BFDDFF87C8000220F21404626
:10245000FEF744FDDFF87090002204214846FEF7A5
:102460003DFD012210214846FEF738FD0095032668
:1024700001250396CDE9015469463846FEF72EFC46
:102480000F20CDE90005CDE9024669464046FEF73A
:1024900025FC0420CDE90005CDE902466946484601
:1024A000FEF71CFC1020CDE90005CDE90256694677
:1024B0004846FEF713FC05B0BDE8F083001002406B
:1024C000001C01400010014000080140104810B5F8
:1024D0000E4901604FF48271416000218160C1604A
:1024E0004FF400720161C0E905120822C0E907211A
:1024F000416281620A21C162FFF712F8002803D00D
:10250000BDE81040FEF77AB910BD00000030014070
:102510006000002010B586B0002417480094019494
:102520000294039404941349059401604821C0E97E
:1025300001144FF47A71C0E903148461FFF722FBA0
:1025400008B1FEF75BF94FF48050009069460A48E5
:10255000FFF79AFB08B1FEF751F9049404A9064865
:102560000594FFF7D1FA002801D0FEF747F906B02D
:1025700010BD000000040040B80000200C4810B559
:102580000A4901604FF4E1314160002181600C2271
:10259000C160C0E904128161C161FFF78DFD0028AF
:1025A00003D0BDE81040FEF729B910BD0038014046
:1025B000080900200C4810B50A4901604FF4E131C8
:1025C0004160002181600C22C160C0E90412816178
:1025D000C161FFF771FD002803D0BDE81040FEF790
:1025E0000DB910BD0048004048090020FEE77047C3
:1025F000F8B5304C304D14F8040FFF2805D1607841
:10260000FF2802D1A078FE280CD0287803284FD3C9
:1026100001B04FF4F573BDE8F040284A28A12DA081
:1026200000F026BDE078374F00F00F0038702079B9
:10263000397801EB10113970617900F00F0008440E
:1026400000EB40063878FEF75FF80028287809D0BC
:10265000032812D33878009040F2DD13174A18A1EE
:1026600029A008E0062808D33878009040F2DF134C
:10267000124A13A12FA000F0FBFC3246E11D38786E
:1026800000F0DCF90028287808D0032810D34FF494
:10269000F2730A4A0AA132A0009607E0062807D37F
:1026A0004FF4F373054A06A139A0009600F0E0FC50
:1026B000F8BD000000010020000000201A3D0008C5
:1026C0002E2E5C5372635C737069666C6173682E46
:1026D000630000000A4C4F475F4552523A20257371
:1026E00020202573203C4C25643E203A2050432076
:1026F000CFC2B7A2CAFDBEDDB8F1CABDB4EDCEF3FC
:1027000000000000020000200A4C4F475F45525273
:102710003A20257320202573203C4C25643E203A26
:1027200020D2D1B4E6D4DA776176654944202564B5
:10273000200000000A4C4F475F494E464F3A202583
:102740007320202573203C4C25643E203A20B2A8FB
:10275000D0CECCEDBCD3B3C9B9A6202564200000EF
:102760000A4C4F475F4552523A202573202025736B
:10277000203C4C25643E203A20B1A3B4E6B2A8D058
:10278000CECAA7B0DCA3ACB3A4B6C8CEAA25640059
:102790000A4C4F475F494E464F3A2025732020256B
:1027A00073203C4C25643E203A20B1A3B4E6B2A885
:1027B000D0CEB3C9B9A6A3ACB3A4B6C8CEAA25647B
:1027C000000000007047F8B5044640684FF482737B
:1027D000984217D1A0684FF48065B0F5004F01D042
:1027E000A8420FD12068066826F04006066060689F
:1027F000984207D1A068A84204D100920B4600225B
:10280000012103E000920B4600228021204600F0C7
:10281000B7F8002804D0606D40F020006065032008
:10282000F8BD38B50B46009204460022802100F026
:10283000A7F8002804D0606D40F0200060650320F8
:1028400038BD00007CB504468DF800108DF80110ED
:10285000032015468DF802108DF80400FDF77EFF69
:102860000E4E002210213046FEF738FB6423012271
:1028700001A90B48FEF790FF64230322694608482C
:10288000FEF78AFF64232A4621460548FEF7DAFE52
:10289000012210213046FEF721FB7CBD00080140DB
:1028A000600000207FB5044606208DF8040020203B
:1028B0008DF800108DF808008DF8011002201546E3
:1028C0008DF802108DF80C00FDF748FF2A4E00220B
:1028D00010213046FEF702FB6423012201A927489C
:1028E000FEF75AFF012210213046FEF7F7FA0022C8
:1028F00010213046FEF7F2FA6423012202A91F4894
:10290000FEF74AFF6423032269461C48FEF744FF92
:10291000012210213046FEF7E1FAFDF71FFF0022E9
:1029200010213046FEF7DAFA6423012201A9134888
:10293000FEF732FF012210213046FEF7CFFA0022C7
:1029400010213046FEF7CAFA6423012203A90B487E
:10295000FEF722FF6423032269460848FEF71CFFA6
:1029600064232A4621460548FEF716FF012210215E
:102970003046FEF7B3FA7FBD00080140600000203A
:102980002DE9F8431E46914688460446089DFEF709
:10299000ABFA401B351AFEF7A7FA07462548006830
:1029A000C0F3CB30684338E0701C37D0FEF79CFA98
:1029B000C01BA84203D215B1009860B32CE0206878
:1029C000416821F0E00141606068B0F5827F0BD181
:1029D000A068B0F5004F02D0B0F5806F04D1206838
:1029E000016821F040010160A06AB0F5005F09D1E3
:1029F0002068016821F4005101602068016841F4F9
:102A000000510160012084F85100002084F850003A
:102A10000320BDE8F8830025401E009020688168EF
:102A200038EA010004D000204845BDD10020F0E77D
:102A30000120F9E7140000207047000030B5ADF622
:102A40000C1D0446154601A80092FDF79DFB4FF4AE
:102A5000002000EBC4210C462A466846FFF722FFFF
:102A60000A20FEF729F921462A460DF28440FFF795
:102A7000E9FE2A460DF284416846FDF7A9FB0400F1
:102A80000B4800780CD0032806D34FF4C773094ACB
:102A900009A10EA000F0ECFA0DF60C1D204630BD89
:102AA0000628F9D34FF4C573024A03A111A0F1E738
:102AB00000000020FE3C00082E2E5C5372635C7305
:102AC0007069666C6173682E630000000A4C4F47A2
:102AD0005F4552523A20257320202573203C4C2517
:102AE000643E203A20D0B4C8EBCAFDBEDDCAA7B010
:102AF000DC0000000A4C4F475F494E464F3A202504
:102B00007320202573203C4C25643E203A20D0B40D
:102B1000C8EBCAFDBEDDB3C9B9A6000010B592B0BE
:102B2000044642220021FFF7BDFE0A20FEF7C4F84A
:102B3000422200216846FFF785FE42226946204670
:102B4000FDF746FB0B49002808780BD0032806D375
:102B50004FF4AE73084A09A10DA000F089FA12B033
:102B6000002010BD0628FAD34FF4AC73024A03A12B
:102B700011A0F2E700000020F23C00082E2E5C536A
:102B800072635C737069666C6173682E6300000029
:102B90000A4C4F475F4552523A2025732020257337
:102BA000203C4C25643E203A20D0B4C8EBCAFDBE80
:102BB000DDCAA7B0DC0000000A4C4F475F494E4613
:102BC0004F3A20257320202573203C4C25643E205D
:102BD0003A20D0B4C8EBCAFDBEDDB3C9B9A6000027
:102BE000FEF788B930B58FB028216846FDF7E5FAC1
:102BF00014210AA8FDF7E1FA01210804CDE900102B
:102C00000024029402250491CDE907504FF4E0100E
:102C100009906846FEF7F8FA0F20CDE90A05680228
:102C2000CDE90C4002210AA80E94FEF7FBF90FB083
:102C300030BD70470148FFF793B80000B80000208E
:102C4000F0B502681C4D1D4E1D4FDFF878C01E4BBD
:102C50004FF0804EA84209D0984207D0704505D069
:102C6000B04203D0B84201D0604503D122F07004D5
:102C70004A682243A84209D0984207D0704505D03F
:102C8000B04203D0B84201D0604503D122F4407471
:102C9000CA6822434C6922F08002224302608A689B
:102CA000C2620A688262A84201D0984201D10969D1
:102CB000016301214161F0BD002C0140000400408E
:102CC00000080040000C00400034014010B584684A
:102CD00042EA032224F47F440A432243826010BD67
:102CE000826822F070020A4342F007018160704757
:102CF00010B5046A036A23F001030362836923F0B9
:102D0000F00343EA021324F00A020A4383610262D9
:102D100010BD10B5036A23F0100303628469036ACF
:102D200024F4704444EA023223F0A00343EA011180
:102D30008261016210BD10B5406A0021C185C18465
:102D4000FFF70BF910BD70B5446A2068406994F82C
:102D50003910C0F3C0100025212904D118B1E58431
:102D6000204600F046F82068406994F83A10C0F315
:102D70008010222904D118B1E585204600F02BF8F7
:102D8000E06B40F01000E0632046FFF7E6F870BD0E
:102D900010B50146406A09680968890613D4002104
:102DA000C1850168CA6822F48072CA6001684A69F4
:102DB00022F001024A6101684A6922F040024A6138
:102DC000202180F83A10FFF793FA10BD10B5406A41
:102DD000FFF78FFA10BD0168CA6822F49072CA60CA
:102DE00001684A6922F001024A61202180F83A1004
:102DF00070470168CA6822F0C002CA60202180F8CA
:102E00003910704710B590F83A10222901D00220ED
:102E100010BD81684FF48053994201D1026922B1FB
:102E2000826A99421BD049B10AE00268816A5268FD
:102E3000C2F308020A80816A891C08E0016971B145
:102E40000168496801F07F011170816A491C816243
:102E5000C18D491E0904090CC18503D016E0016823
:102E60004968F1E70168CA6822F02002CA60016877
:102E7000CA6822F48072CA6001684A6922F00102BD
:102E80004A61202180F83A10FFF732FA002010BD85
:102E900070B5044600680169E26821F440511143AD
:102EA0000161A16820690143606901432068C2682B
:102EB00041F20C639A430A43C26020684169A269E7
:102EC00021F44071114341611E492068884202D1BA
:102ED000FEF754F901E0FEF741F900EBC00101EB08
:102EE0000011606864228000B1FBF0F3B3FBF2F3E1
:102EF0006FF018067343B1FBF0F5B1FBF0F605EB8C
:102F00008305322303EB0515B5FBF2F5B6FBF2F6AC
:102F100005F0F00505EB0615B1FBF0F6B1FBF0F09E
:102F2000B0FBF2F06FF01801484306EB800003EBB2
:102F30000010B0FBF2F0216800F00F002844886018
:102F400070BD0000003801402DE9F0411E461746D3
:102F500088460446069D1CE0681C1AD025B1FDF782
:102F6000C3FF801BA84214D92068C16821F4D07126
:102F7000C1602068416921F001014161202084F88D
:102F8000390084F83A00002084F838000320BDE8B6
:102F9000F0812068016838EA010004D00020B842BE
:102FA000DAD00020F3E70120F9E7000010B504486B
:102FB00000F016F8BDE810400148FEF7CFBF000052
:102FC0000809002010B5044800F00AF8BDE81040D8
:102FD0000148FEF7C3BF000048090020FEE70000DB
:102FE000F8B52049006801240D15884218D1006801
:102FF000C043C00634D41C4E30680168406800905D
:103000003046FEF77EFF706B00684068A6F6080148
:10301000C0F58060488001F8044B2A4630461BE02A
:10302000124988421CD10068C043C00618D40E4E15
:10303000403630680168406800903046FEF761FF16
:10304000706B00684068A6F24441C0F5806048801B
:1030500001F8044B2A463046BDE8F840FFF7FCB8BB
:10306000F8BD000000380140080900200048004079
:103070000FB4054B10B503A9044A029800F0EAF812
:1030800010BC5DF814FB0000853900081800002012
:103090000907090E002804DB00F1E02080F8001485
:1030A000704700F00F0000F1E02080F8141D704719
:1030B00002E008C8121F08C1002AFAD17047704701
:1030C000002001E001C1121F002AFBD1704700005F
:1030D0002DE9FF5F82B00021DDE90430020DDDF84B
:1030E00040B0034318D044F61050A2F2FF324243DE
:1030F0001514119801281FD0A5EB0B00401C5FEAA6
:10310000000A4FF000064E4FDFF83891B0465046A7
:1031100015D5CAF1000413E0119801244AA301282F
:1031200001D16FEA0B010298119AC0E90031C0E9A0
:10313000024206B0BDE8F09FCBF10000DFE7044695
:103140000021404A491842EB0450CDE9001012E03A
:10315000E00707D032463B4640464946FDF733F983
:103160008046894632463B4610461946FDF72BF904
:1031700006460F466410002CEAD1DDE90401DDE9C2
:103180000023BAF1000F06DAFDF71DF942464B465F
:10319000FDF719F905E0FDF788F942464B46FDF7C2
:1031A00084F904460E460022284BFDF705FA03D8A1
:1031B0004FF0FF30014607E00022254B2046314604
:1031C000FDF75AF8FDF7E0F9102409E0002C0ADBBE
:1031D0000A220023FDF71FF8039B30321A55641EA4
:1031E00050EA0102F2D1641C039AC4F111031444A1
:1031F000119A012A03D0012208430DD10AE00843A5
:1032000004D000204FF0110B119072E7A3EB0B05D7
:103210006D1E0DE05B4504DD4FF0000205F1010578
:1032200004E003DA4FF00002A5F10105002AECD01A
:1032300002981199C0E90231C0E9004579E7000020
:10324000000014400000F03F300000000000F04398
:103250000000E03F2DE9FF4F95B09B4689460646AA
:1032600000250FE2252877D100242746F84A0121BE
:10327000059400E0044316F8013F203B01FA03F0F7
:103280001042F7D130782A2811D06FF02F03307810
:10329000A0F13002092A16D8059A44F0020402EB84
:1032A000820203EB42021044761C0590EFE759F8C6
:1032B000042B0592002A03DA504244F4005405908E
:1032C00044F00204761C30782E2816D116F8010F2F
:1032D00044F004042A280DD06FF02F023078A0F1BA
:1032E0003003092B09D807EB870302EB4303C71808
:1032F000761CF3E759F8047B761C30786C280FD0E5
:1033000006DC4C2817D068280DD06A2814D104E0B8
:10331000742810D07A280FD10DE044F400140AE08C
:1033200044F4801401E044F440147278824202D1E3
:1033300004F58014761C761C307866280BD013DCDC
:10334000582877D009DC002875D04528F6D04628C3
:10335000F4D047281AD19DE118E0632835D06428BD
:1033600079D0652812D195E1702873D008DC6728E0
:10337000F1D069286FD06E280DD06F2806D1B5E046
:1033800073282CD0752875D0782874D05A46179990
:1033900090476D1C75E1C4F30250022809D0032840
:1033A0000DD0D9F8001004280DD00D6009F10409E2
:1033B00067E1D9F80010EA17C1E90052F6E7D9F839
:1033C00000100D80F2E70D70F0E719F8041B8DF87E
:1033D000001000208DF80100EA46012003E059F8B2
:1033E00004AB4FF0FF3061074FF0000102D40DE055
:1033F00008F101018846B9420FDA8045F8DB1AF876
:1034000008100029F4D108E008F101018846814242
:10341000FADB1AF808100029F6D105985B46A0EBF4
:10342000080721463846179A00F094FA284400EB22
:10343000080507E04DE029E10DE01AF8010B5A46B6
:1034400017999047B8F10108F7D25B4621463846F4
:10345000179A13E142E00A220092C4F302524FF09D
:10346000000A022A08D059F804CB032A4FEAEC716B
:103470000AD00DE029E02AE009F1070121F0070256
:10348000F2E802C1914609E00FFA8CFC4FEAEC71B8
:10349000042A03D14FFA8CFC4FEAEC71002907DAB9
:1034A0000A460021DCF1000C61EB02012D2202E052
:1034B000220504D52B228DF80420012203E0E20727
:1034C00001D02022F7E7904659E00A2102E01022BD
:1034D0000DE010214FF0000A00910BE010224FF098
:1034E000000A44F004040827009203E008224FF089
:1034F000000A0092C4F30252022A05D059F804CB04
:103500000021032A08D009E009F1070121F0070290
:10351000F2E802C1914605E01FFA8CFC042A01D1B1
:103520000CF0FF0C4FF00008220728D5702806D0B9
:10353000009B83F0100353EA0A0305D00EE04022FB
:103540008DF80420012208E05CEA010206D0302256
:103550008DF804208DF8050002229046009B83F030
:10356000080353EA0A030AD15CEA010201D16207A7
:1035700005D530228DF804204FF001087F1E582811
:1035800004D034A003900EA802900DE036A0F9E715
:1035900053466046009AFCF73EFE84460398825CE0
:1035A0000298401E029002705CEA0100F0D102987D
:1035B00006A9081A00F1200A600702D524F4803415
:1035C00000E00127574502DDA7EB0A0000E00020DC
:1035D00000EB0A01009005984144401A0590E00371
:1035E00006D45B462146179A059800F0B3F90544C6
:1035F000002706E001A85A46C05D179990476D1C48
:103600007F1C4745F6DBE0030CD55B462146179A45
:10361000059800F09FF9054404E030205A461799B8
:1036200090476D1C0099481E00900029F5DC08E0C9
:10363000029802995A460078491C029117999047BE
:103640006D1CBAF10001AAF1010AF1DC65E100008C
:103650000928010030313233343536373839616268
:10366000636465660000000030313233343536372C
:1036700038394142434445460000000000F058F903
:103680000544761C307800287FF4ECAD19B028464C
:10369000BDE8F08F620700D4062709F1070222F087
:1036A000070CFCE80223E14603F000485FEA080C3F
:1036B00002D00FF2702C0DE05FEA045C02D50FF22D
:1036C000682C07E05FEAC47C02D00FF2602C01E0B6
:1036D000AFF2700C4FF0FF3823F00043CDF850C02C
:1036E00065280CD006DC452809D046281DD047287F
:1036F0003DD13DE0662818D067287ED138E0002112
:10370000112F01DB112000E0781CCDE9000106A992
:103710000EA8FFF7DDFCDDE90F010E9A03910021F1
:10372000009207F1010A04914DE04FF0004000972C
:10373000CDE9011006A90EA8FFF7CAFCDDE90F02CA
:1037400003920E9B11990022DDF80CA000930492C5
:1037500011B9791C00EB010AB7EB0A0004D4C0F1DF
:10376000FF3007F1010A0490AAEB0700019044E042
:10377000012F00DA01270021112F01DD112000E0C7
:103780003846CDE9000106A90EA8FFF7A1FCDDE946
:103790000F010E9A0391002104910092BA4621076D
:1037A0000CD40399514500DA8A46BAF1010F05DDC0
:1037B000009AAAF10101515C302908D0B84202DA1E
:1037C00010F1040F06DA0121CDE9011015E0AAF18C
:1037D0000101E9E7002805DC049901440491AAEB02
:1037E000000102E0411C514500DD8A460499401A5F
:1037F000401C01904FF000400290200704D4019833
:10380000504501DBCDF8048000208DF84F00029870
:103810000DF14F07B0F1004F25D02B200E900298EC
:103820004FF0020800280CDA404202902D200E9042
:1038300007E00A210298FCF7D8FC3031029007F823
:10384000011DB8F10001A8F10108F2DC029800287E
:10385000EFD1791E0E980870307800F0200040F00B
:10386000450007F8020D12A8C01B00F107081498C4
:10387000007800B1012000EB0A01019801EBE07132
:1038800005984144401A401E0590E00306D45B466B
:103890002146179A059800F05DF8054414980078C1
:1038A00018B15A46179990476D1CE00324D55B4622
:1038B0002146179A059800F04DF805441CE004983D
:1038C000002807DBDDE90301884203DD0098405C46
:1038D000179901E0179930205A469047049805F14E
:1038E0000105401C04900198401E019004D12E2037
:1038F0005A46179990476D1CBAF10001AAF1010AC6
:10390000DDDC05E017F8010B5A46179990476D1C4E
:10391000B8F10001A8F10108F4DC5B462146179AD2
:103920000598ABE62D0000002B00000020000000F1
:103930002DE9F041044600251E461746880404D4AC
:1039400005E039462020B0476D1C641EF9D5284695
:10395000BDE8F0812DE9F041044600251E46904661
:10396000C80301D5302700E02027880404D505E0EE
:1039700041463846B0476D1C641EF9D52846BDE85F
:10398000F081000013B54FF6FF730122694602482B
:10399000FEF7B0FC00981CBD0809002070B5054674
:1039A00000240DE02819817801F00700C90800EB18
:1039B000011000F5604080B2012100F04FF8641C56
:1039C0002878A042EEDC70BD10B5114810F8041F35
:1039D0005A290FD14178A5290CD1C178832909D161
:1039E0000179F02906D1417921B98079012801D1E5
:1039F00000F052F807480078032807D3BDE81040CC
:103A00006223054A05A109A0FFF732BB10BD0000E3
:103A10000405002000000020DC3C00082E2E5C5332
:103A200072635C6C63642E63000000000A4C4F47B5
:103A30005F4552523A20257320202573203C4C25A7
:103A4000643E203A20B4AEBFDAC6C1CFC2B7A2CA24
:103A5000FDBEDDB8F1CABDB4EDCEF3001CB50BA2BE
:103A6000D2E90032CDE90032020A8DF804208DF847
:103A70000500080A8DF806008DF807104FF6FF7351
:103A8000082269460348FEF735FC1CBD5AA505828D
:103A900000000000480900200EB508A10EC98DE8FD
:103AA0000E00010A8DF808108DF809004FF6FF731B
:103AB0000A2269460448FEF71DFC0EBD5AA507827E
:103AC00000845A010000000048090020FDF71AFA9E
:103AD000FFF788F8FEF786FCFEF766FCFEF74EFD62
:103AE000FEF7F4FCFEF716FDFEF764FD2E48FEF728
:103AF00095F82E4D4FF480642246291D2C48FEF780
:103B0000ABFB2B480068C16841F01001C160294F30
:103B10002246391D2848FEF79FFB27480068C168E8
:103B200041F01001C16025A0FFF7A2FA31A0FFF714
:103B30009FFA3EA0FFF79CFA2EA0FFF799FA49A042
:103B4000FFF796FA55A0FFF793FA4FF47A70FDF756
:103B5000B3F8604E00244FF6FF78307830B15E48FD
:103B6000FCF74DFE5C48FFF719FF347028782946B2
:103B7000C00708D00C704A884346291D0C48FEF740
:103B8000B9FBFEF735FD38783946C00708D00C7010
:103B90004A884346391D0648FEF7ACFBFFF714FF81
:103BA0000820FDF789F8D8E7B800002000010020C0
:103BB0000809002004050020480900202A2A2A2A92
:103BC0002A2A2A2A2A28432920434F505952494752
:103BD000485420323032302D31302D3235202A2ACF
:103BE0002A2A2A2A2A2A2A2A2A2A2A2A2A2A2A0D52
:103BF0000A0000002A202020202020202020202031
:103C000020202020202020202020202020202020B4
:103C100020202020202020202020202020202020A4
:103C20002020202020202A0D0A0000002A20202009
:103C3000202020202020202020202020D5B9CFE8BF
:103C4000B5E7D7D3B9A4D7F7CAD2202020202020A7
:103C500020202020202020202020202020202A0D6D
:103C60000A0000002A2020202020202020207A681E
:103C7000616E7869616E67456C656374726F6E69B9
:103C80006373747564696F20202020202020202019
:103C90002020202020202A0D0A0000002A2A2A2A7B
:103CA0002A2A2A2A2A2A2A2A2A2A2A2A2A2A2A2A74
:103CB0002A2A2A2A2A2A2A2A2A2A2A2A2A2A2A2A64
:103CC0002A2A2A2A2A2A2A2A2A2A2A2A2A2A2A0D71
:103CD0000A0D0A00010000201C0000206C63645FD4
:103CE0007265636569766500466C617368546573D7
:103CF000740053657457617665547970650053613B
:103D000076655761766542797065494400776176DA
:103D10006554797065546573740050435F726563D0
:103D200065697665000000000000000000010203E4
:103D30000406070809000000000102030400000057
:103D4000603D0008000000201C000000B0300008AA
:103D50007C3D00081C000020F4190000C030000861
:103D6000070100000000000001000000100000003A
:0C3D7000000000000024F400000000002F
:0400000508000131BD
:00000001FF
