:020000040800F2
:1000000030080020450100082D0200082F020008DA
:1000100033020008370200083B020008000000001D
:100020000000000000000000000000003F02000887
:1000300041020008000000004302000845020008D9
:100040005F0100085F0100085F0100085F01000810
:100050005F0100085F0100085F0100085F01000800
:100060005F0100085F0100085F0100085F010008F0
:100070005F0100085F0100085F0100085F010008E0
:100080005F0100085F0100085F0100085F010008D0
:100090005F0100085F0100085F0100085F010008C0
:1000A0005F0100085F0100085F0100085F010008B0
:1000B0005F010008F30800085F0100085F01000805
:1000C0005F0100085F0100085F0100085F01000890
:1000D0005F0100087B0300085F010008170C00089F
:1000E0005F0100085F0100085F0100085F01000870
:1000F0005F0100085F0100085F0100085F01000860
:100100005F0100085F0100085F0100085F0100084F
:100110005F0100085F0100085F0100085F0100083F
:100120005F0100085F0100085F0100085F0100082F
:10013000DFF80CD003F0B8FA004800477B01000854
:10014000300800200648804706480047FEE7FEE7E3
:10015000FEE7FEE7FEE7FEE7FEE7FEE7FEE7FEE777
:100160005B3100083101000801B502E00098401E33
:10017000009000980028F9D108BD08B502F0EDFF05
:100180004FF4A06001F0FEFF482000F0F1FD00F008
:100190007DF800F061FB41F61F4141F2883000F02C
:1001A00079FB4FF4E13000F053FD0D4800F098FE6C
:1001B00000BF0C480078062800DA09E008480078FB
:1001C0002323094A09A100900AA003F00DFB00BFF8
:1001D00000BF04E01448FFF7C7FF00F0C7F8F9E7D5
:1001E000EA0300202C000020084100086D61696EC0
:1001F0002E6300000A4C4F475F494E464F3A202578
:100200007320202573203C4C25643E203A20675FF4
:10021000616C6C57617665547970652E636F756E8D
:100220007465723A25640000002D3101704700BFEB
:10023000FEE700BFFEE700BFFEE700BFFEE7704736
:10024000704770477047000010B5044621465D486E
:1002500001F04AFD00BF80215A4801F0B3FD00289B
:10026000F9D010BD08B54FF4E06001F08BFF2520F8
:100270008DF8000000208DF8010001208DF80200AB
:100280008DF80300684601F082FF08BD00B587B015
:100290000121042001F0DAF90121880301F0D6F9E7
:1002A0004FF40070ADF8180003208DF81A001820E4
:1002B0008DF81B0006A9444801F08CFA4FF48060C9
:1002C000ADF8180004208DF81B0006A93E4801F087
:1002D00081FA4FF4E13002900020ADF80C00ADF847
:1002E0000E00ADF81000ADF814000C20ADF81200AF
:1002F00002A9344801F0FFFB0121324801F087FCDC
:100300004021304801F06BFD012240F225512D487B
:1003100001F089FC25208DF8040003208DF80500EC
:100320008DF8060001208DF8070001A801F02FFFCD
:1003300007B000BD70B504460D4622480088E1B202
:10034000204801F0D1FC00BF40211E4801F03AFDD9
:100350000128F9D1204670BD10B51A4801F0C8FC3B
:10036000C4B2214619A003F03FFA10BD1848007826
:1003700010B1002016490870704710B540F22551A1
:10038000104801F035FD70B10E4801F0B1FC114983
:100390000870084601780DA003F026FA40F22551B6
:1003A000084801F04FFD10BD10B5044600BF2021E4
:1003B000044801F007FD0028F9D0024801F098FC3C
:1003C00010BD000000380140000801402563000016
:1003D000020000200800002000B587B00121242081
:1003E00001F034F90121080301F030F92020ADF8C3
:1003F000040003208DF8060018208DF8070001A9DD
:10040000F84801F0E7F94020ADF8040001A9F548EB
:1004100001F0E0F98020ADF8040001A9F14801F0F5
:10042000D9F91020ADF804008DF8070001A9ED48B6
:1004300001F0D0F91021EB4801F079FA0020ADF875
:1004400008004FF48270ADF80A000020ADF80C00EF
:100450000220ADF80E000120ADF810004002ADF80A
:1004600012000820ADF814000020ADF81600072097
:10047000ADF8180002A9DC4801F024FD0121DA489A
:1004800001F0C5FD07B000BD10B5044600BF022154
:10049000D54801F040FE0028F9D02146D24801F0AD
:1004A000E7FD00BF0121D04801F035FE0028F9D05A
:1004B000CD4801F0DFFDC0B210BD10B50024102101
:1004C000C84801F036FA0520FFF7DEFF00BFFF2025
:1004D000FFF7DAFF044604F001000028F7D11021ED
:1004E000C04801F024FA10BD10B51021BD4801F03C
:1004F00020FA0620FFF7C8FF1021BA4801F017FACA
:1005000010BD10B50446FFF7EFFFFFF7D6FF10212F
:10051000B44801F00EFA2020FFF7B6FFC4F30740FD
:10052000FFF7B2FFC4F30720FFF7AEFFE0B2FFF71B
:10053000ABFF1021AB4801F0FAF9FFF7BEFF10BD89
:1005400010B5FFF7D1FF1021A64801F0F2F9C7203E
:10055000FFF79AFF1021A34801F0E9F9FFF7ADFF7B
:1005600010BD70B505460C461646FFF7BDFF1021BD
:100570009C4801F0DEF90220FFF786FFC4F3074034
:10058000FFF782FFC4F30720FFF77EFFE0B2FFF71B
:100590007BFFB6F5807F01DD4FF4807603E028789D
:1005A000FFF772FF6D1C301EA6F101018EB2F6D16D
:1005B00010218C4801F0BBF9FFF77FFF70BD2DE9DA
:1005C000F05F07460E4614464FF00008C146C2468B
:1005D0000025AB4606F0FF0ACAF10000C5B220466E
:1005E000E11704EB1161C1F30728E11704EB116176
:1005F0000912A4EB012101F0FF09BAF1000F20D18B
:10060000B8F1000F05D1224631463846FFF7A9FF61
:1006100064E009E04FF4807231463846FFF7A1FFED
:1006200006F5807607F58077B8F10000A8F10101A2
:1006300001F0FF08EED14A4631463846FFF791FFF8
:100640004CE0B8F1000F18D1A94510DDA9EB050069
:1006500000F0FF0B2A4631463846FFF782FF2E4452
:100660002F445A4631463846FFF77BFF36E0224694
:1006700031463846FFF775FF30E0601B84B22046F4
:10068000E11704EB1161C1F30728E11704EB1161D5
:100690000912A4EB012101F0FF092A463146384630
:1006A000FFF75FFF2E442F4409E04FF4807231467C
:1006B0003846FFF756FF06F5807607F58077B8F1E4
:1006C0000000A8F1010101F0FF08EED1B9F1000F1F
:1006D00004D04A4631463846FFF743FFBDE8F09F55
:1006E00070B505460C46164610213E4801F021F92A
:1006F0000320FFF7C9FEC4F30740FFF7C5FEC4F3AC
:100700000720FFF7C1FEE0B2FFF7BEFE04E0FF20C6
:10071000FFF7BAFE28706D1C301EA6F101018EB2E3
:10072000F5D110212F4801F002F970BD2DE9F041FB
:10073000002400250026002710212A4801F0F9F89E
:100740009F20FFF7A1FEFF20FFF79EFE0546FF203A
:10075000FFF79AFE0646FF20FFF796FE0746102198
:10076000204801F0E4F8280440EA062040EA0704A3
:100770002046BDE8F08110B500241021194801F091
:10078000D8F8AB20FFF780FEFF20FFF77DFEFF20AB
:10079000FFF77AFEFF20FFF777FEFF20FFF774FEDA
:1007A000044610210F4801F0C2F8204610BD10B5D4
:1007B000044610210B4801F0BCF80320FFF764FE4B
:1007C000C4F30740FFF760FEC4F30720FFF75CFEA9
:1007D000E0B2FFF759FE10BD10B5FF20FFF754FE41
:1007E00010BD0000000801400030014010B5044673
:1007F00000BF0221164801F08EFC0028F9D02146E6
:10080000134801F035FC00BF0121114801F083FCC1
:100810000028F9D00E4801F02DFC10BD10B51021B4
:100820000C4801F086F8B920FFF72EFE1021094888
:1008300001F07DF810BD10B51021064801F079F8DF
:10084000AB20FFF721FE1021024801F070F810BD27
:10085000003001400008014008B50121042000F0EB
:10086000F5FE0420ADF8000010208DF803000320F1
:100870008DF802006946064800F0ACFF04210448E8
:1008800001F055F80421024801F053F808BD0000BA
:10089000000801407FB504460D460121022000F00A
:1008A000E2FE0920ADF808004720ADF80400002062
:1008B000ADF80A00ADF8060001A9284801F0A4FD32
:1008C00001224121254802F016F91D208DF8000073
:1008D00000208DF8010003208DF8020001208DF822
:1008E0000300684601F053FC01211C4802F0E8F8BF
:1008F0007FBD10B50121194802F0ABFB60B30121A7
:10090000164802F0B7FB1648D0E900305A1C40F1F7
:1009100000001349C1E9002008464CF2503306C8D4
:100920000020591A904117D20E48007820B10421B6
:100930000D4800F0FCFF03E004210B4800F0F9FF34
:100940000021074A116051600648007808B901206B
:1009500000E000200349087010BD000000040040C2
:1009600018000020100000200008014070B5044667
:100970005A2000F0E9F9A52000F0E6F9042000F083
:10098000E3F9802000F0E0F9032000F0DDF92546CE
:10099000E11704EB1161C1F3072000F0D5F9E1176D
:1009A00004EB11610912A4EB0121C8B200F0CCF9EB
:1009B00070BD70B504460D465A2000F0C5F9A5205B
:1009C00000F0C2F9052000F0BFF9822000F0BCF968
:1009D0002646E11704EB1161C1F3072000F0B4F9DA
:1009E000E11704EB11610912A4EB0121C8B200F078
:1009F000ABF92E46E91705EB1161C1F3072000F0B2
:100A0000A3F9E91705EB11610912A5EB0121C8B2A1
:100A100000F09AF970BD2DE9F04104460D462846D4
:100A200002F02EFCC7B25A2000F08EF9A52000F08B
:100A30008BF9F91CC8B200F087F9822000F084F924
:100A40002646E11704EB1161C1F3072000F07CF9A1
:100A5000E11704EB11610912A4EB0121C8B200F007
:100A600073F903E0287800F06FF96D1C28780028EE
:100A7000F8D1BDE8F08170B5044628255A2000F071
:100A800063F9A52000F060F9E81C00F05DF9822010
:100A900000F05AF92646E11704EB1161C1F3072073
:100AA00000F052F9E11704EB11610912A4EB0121E6
:100AB000C8B200F049F904E0002000F045F9681ED2
:100AC000C5B2002DF8D170BD10B558480088012876
:100AD00006D003280ED005281AD0082843D12AE0D2
:100AE000534801F005F9C4B25A2C02D103204F49F2
:100AF00008803CE04E4801F0FBF8C4B2A52C03D1BD
:100B000005204A49088002E00120484908802EE07B
:100B1000474801F0EDF8C4B2FA2C08DA082043493E
:100B200008800020434908804348047002E0012007
:100B30003E4908801BE03E4801F0DAF83F493D4A53
:100B4000128888543B480088401C3A49088008466F
:100B5000008839490978884204D101203849087051
:100B60003249088003E001203049088000BF00BFFF
:100B700010BD33490978B1B130490978832912D1C0
:100B800000212F4A11702D498A78497802EB012102
:100B900081802A49C978418028494A79097902EB3C
:100BA0000121018002E000210180818070477CB535
:100BB00004465A2000F0C8F8A52000F0C5F804202B
:100BC00000F0C2F8832000F0BFF82546E11704EBDF
:100BD0001161C1F3072000F0B7F8E11704EB1161D0
:100BE0000912A4EB0121C8B200F0AEF8012000F018
:100BF000ABF800BF124800780028FBD06846FFF72A
:100C0000B8FFBDF80020BDF804100EA002F0ECFD06
:100C1000BDF800007CBD10B540F22551044801F03C
:100C2000E7F808B1FFF798FB10BD00002200002094
:100C30000048004024000020260000205C00002026
:100C4000200000206C63640925780925780D0A00CE
:100C500010B586B004460121082000F0F7FC012100
:100C6000880400F000FD3F4800F002FF4FF4806070
:100C7000ADF8140003208DF8160018208DF8170029
:100C800005A9394800F0A6FD4FF40060ADF8140046
:100C900004208DF8170005A9334800F09BFD4FF4A0
:100CA000E13001900020ADF80800ADF80A00ADF881
:100CB0000C00ADF810000C20ADF80E0001A9294879
:100CC00000F019FF0121274800F0A1FF402125482D
:100CD00001F085F8012240F22551224800F0A3FFDF
:100CE00027208DF8000003208DF801008DF8020008
:100CF00001208DF80300684601F049FA06B010BDE6
:100D00000FB438B505A800901848009A049902F06D
:100D10007BFD00200090154802F0B2FA85B2002455
:100D20000DE000BF40210F4801F04CF80028F9D039
:100D30000E48015D0B4800F0D7FF601C84B2AC4246
:100D4000EFDB38BC5DF814FB10B5044621460548BE
:100D500000F0CAFF00BF8021024801F033F80028EC
:100D6000F9D010BD00480040000C01409201002065
:100D700010B504466FF0040001F053FAE11704EBDC
:100D80005171C1F3C701234A11701046007800EB7E
:100D90004001C1EBC0104FF6FF7101EAC0001E49CF
:100DA000088010BD01461C4A12884A434FF0E023D8
:100DB0005A6100229A6101221A6100BF4FF0E022BD
:100DC000106900F001021AB100F48032002AF5D057
:100DD00000224FF0E0231A619A61704701460D4AE4
:100DE00012784A434FF0E0235A6100229A610122AF
:100DF0001A6100BF4FF0E022106900F001021AB141
:100E000000F48032002AF5D000224FF0E0231A616E
:100E10009A617047280000202A00002010B5034680
:100E200007E018780C78A04201D0002010BD5B1CB0
:100E3000491C101EA2F10104A2B2F2D10120F5E773
:100E400010B5A4B04422CB4913A802F007FA002041
:100E5000029001900090C8A002F0C6FCFFF7BCFA17
:100E6000FFF789FC0290C820FFF77EF9FFF75EFCD0
:100E70000190C9A0DDE9011202F0B6FCD449019845
:100E8000884226D1D3A002F0AFFC0020FFF739FB47
:100E90004022002113A8FFF792FB13A9D6A002F06D
:100EA000A3FC4022002103A8FFF71AFC13A9D8A035
:100EB00002F09AFC402203A913A802F0E8F90446C4
:100EC0001CB9D9A002F090FC02E0E0A002F08CFC7A
:100ED00002E0E7A002F088FCFFF7A0FC24B010BD00
:100EE0001CB50446002001900090FFF775FAFFF74B
:100EF00042FC0190C820FFF737F9FFF717FC00907C
:100F000040F2044200212046FFF7EAFB00201CBD0E
:100F10000EB50020029001900090FFF75DFAFFF7F8
:100F20002AFC0290C820FFF71FF9FFF7FFFB019092
:100F300099A0DDE9011202F057FCA5490198884209
:100F400002D1D2A002F050FCD848FFF7C9FF0EBD75
:100F500010B5FFF763FC10BD30B593B00446002018
:100F600001900090FFF738FAFFF705FC0190C820C8
:100F7000FFF7FAF8FFF7DAFB0090954900988842EE
:100F800033D10020FFF7BDFA422200212046FFF7AF
:100F900016FBC820FFF7E8F84222002102A8FFF75D
:100FA0009FFB422202A9204602F071F905466DB965
:100FB00000BFBF480078062800DA06E0B423BD4A27
:100FC000BDA1C1A002F010FC00BF0DE000BFB848F9
:100FD0000078032800DA06E0B823B64AB6A1C4A018
:100FE00002F002FC00BF00BF0DE000BFB048007877
:100FF000032800DA06E0BE23AE4AAFA1C6A002F085
:10100000F3FB00BF00BFFFF709FC002013B030BDA9
:101010002DE9F04106464FF0FF37002428E0A348B1
:10102000801C005DB04200DA21E0A048801C005D19
:10103000B04202D14FF0FF371EE09C48057807E030
:10104000681E9A49891C095C9848801C41556D1E90
:10105000A542F5DC9548801C0655801E0078401C92
:10106000924908700846FFF777FF002704E0641CE8
:101070008E480078A042D2DC00BF3846BDE8F0813F
:1010800010B5042089490870012088700221874822
:10109000C1700421017105214171FFF75DFF834893
:1010A000FFF71EFF05208149087013217F488171D9
:1010B000FFF752FF7D48FFF713FF0420FFF7A8FF5B
:1010C00004466CB100BF7A480078032800DA06E0D5
:1010D000F5239C4A78A19CA002F086FB00BF00BFCC
:1010E0007248FFF7FDFE0220FFF792FF04466CB145
:1010F00000BF6F480078032800DA06E0FA23914A1F
:101100006DA191A002F070FB00BF00BF6748FFF720
:10111000E7FE0320FFF77CFF04466CB100BF644884
:101120000078032800DA06E0FF23864A62A186A041
:1011300002F05AFB00BF00BF5C48FFF7D1FE03205E
:10114000FFF766FF044674B100BF594800780328D2
:1011500000DA07E040F205137A4A57A17AA002F0BC
:1011600043FB00BF00BF5148FFF7BAFEC820FEF79F
:10117000FBFF10BD284100080D0A20D5E2CAC7D2E6
:10118000BBB8F6324DB4AED0D0666C617368CAB5E8
:10119000D1E9200D0A0000000D0A20466C61736839
:1011A000494420697320307825582C20204D616EE9
:1011B00075666163747572657220446576696365EE
:1011C00020494420697320307825580D0A0000001A
:1011D0001840EF000D0A20BCECB2E2B5BDBBAAB0CE
:1011E000EEB4AED0D0666C617368205732355131A1
:1011F000323820210D0A00000D0A20D0B4C8EBB50A
:10120000C4CAFDBEDDCEAAA3BA2573200D09000015
:101210000D0A20B6C1B3F6B5C4CAFDBEDDCEAAA381
:10122000BA2573200D0A00000D0A20324DB4AED04D
:10123000D0666C617368285732355131323829B223
:10124000E2CAD4B3C9B9A6210A0D00000D0A2032A2
:101250004DB4AED0D0666C617368285732355131C9
:10126000323829B2E2CAD4CAA7B0DC210A0D000084
:101270000D0A20BBF1C8A1B2BBB5BD205732355114
:10128000313238204944210A0D0000000D0AB3F51F
:10129000CABCBBAF666C61736820573235513132BE
:1012A0003820B3C9B9A6210D0A000000EA030020C6
:1012B0002C0000200D410008666C6173685F736547
:1012C00063742E63000000000A4C4F475F494E468E
:1012D0004F3A20257320202573203C4C25643E2066
:1012E0003A20D0B4C8EBCAFDBEDDB3C9B9A6000030
:1012F0000A4C4F475F4552523A20257320202573F0
:10130000203C4C25643E203A20D0B4C8EBCAFDBE38
:10131000DDCAA7B0DC0000000A4C4F475F455252BF
:101320003A20257320202573203C4C25643E203A2A
:1013300020BBF1C8A1B2BBB5BD20466C617368206B
:1013400049442100194100080A4C4F475F45525259
:101350003A20257320202573203C4C25643E203AFA
:1013600020CCEDBCD3CAFDBEDDB4EDCEF300000051
:10137000DF48006840F00100DD4908600846406829
:10138000DC490840DA49486008460068DA49084004
:10139000D74908600846006820F4802008600846A5
:1013A000406820F4FE0048604FF41F0088607047DA
:1013B000CF49096821F48031CD4A1160114609688E
:1013C00021F480211160B0F5803F03D0B0F5802F6B
:1013D0000ED106E0C649096841F48031C44A116063
:1013E00007E0C349096841F4A021C14A116000E047
:1013F00000BF00BF704710B5014600220023002047
:101400004A11012A02D1BA4C236806E0022A02D10D
:10141000B74C236A01E0B64C636A01F01F02012455
:1014200094401C400CB1012000E0002010BD38B5F4
:10143000002000900024002500BF3120FFF7DBFFD3
:1014400005460098401C00900098B0F5A06F01D0B0
:10145000002DF2D03120FFF7CEFF08B1012400E0CB
:101460000024204638BD01460020A14A106820F023
:10147000F80040EAC10010607047A049086070475A
:10148000024600209A4B586820F47C1042EA01037F
:101490001843974B58607047984908667047014653
:1014A0000020934A506820F00300084350607047C2
:1014B0008F48406800F00C007047014600208C4ABD
:1014C000506820F0F000084350607047014600204B
:1014D000874A506820F4E060084350607047014636
:1014E0000020834A506820F4605040EAC1005060F8
:1014F000704729B17E4A527A02437D4B5A7204E00A
:101500007B4A527A82437A4B5A7270477B49D83170
:101510000860704701460020754A506820F440403A
:101520000843506070470021714A20321170704AA0
:1015300082F82010012802D004280AD104E00121F9
:101540006B4A2032117005E00521694A2032117082
:1015500000E000BF00BF70476949086070476449F8
:10156000096A0143624A116270476549443908605B
:10157000704730B500210022002400235C4D6D68C7
:1015800005F00C0121B1042905D0082923D105E07B
:101590005C4D056022E05B4D05601FE0544D6D68B9
:1015A00005F47012524D6D6805F48034022505EB88
:1015B00092421CB9544D554305600BE04C4D6D688B
:1015C00005F400351DB1504D5543056002E04D4D09
:1015D0005543056002E04B4D056000BF00BF444D20
:1015E0006D6805F0F0010909484D6B5C0568DD4048
:1015F00045603F4D6D6805F4E061090A434D6B5C41
:101600004568DD4085603A4D6D6805F46051C90A52
:101610003E4D6B5C4568DD40C560354D6D6805F439
:101620004041890B3A4D6B5CC568B5FBF3F505612C
:1016300030BD29B12E4A526902432D4B5A6104E054
:101640002B4A526982432A4B5A61704729B1284A72
:1016500092690243264B9A6104E0254A92698243CB
:10166000234B9A61704729B1214AD2690243204B2A
:10167000DA6104E01E4AD26982431D4BDA61704789
:1016800029B11B4AD2680243194BDA6004E0184AB8
:10169000D2688243164BDA60704729B1144A126946
:1016A0000243134B1A6104E0114A12698243104B42
:1016B0001A61704712494039086070470F49C86481
:1016C00070470B49C87170470948406A40F0807004
:1016D00007494862704701460020054A92680A405F
:1016E0000AB1012000E0002070470149887270476C
:1016F000001002400000FFF8FFFFF6FE000042422B
:101700008004424200127A0000093D002E000020B1
:101710003E00002010B50446CC48844208D1012187
:101720000420FFF7ADFF00210420FFF7A9FF46E0EA
:10173000C748844208D101210820FFF7A1FF0021FA
:101740000820FFF79DFF3AE0C248844208D10121FA
:101750001020FFF795FF00211020FFF791FF2EE0EA
:10176000BD48844208D101212020FFF789FF0021D4
:101770002020FFF785FF22E0B848844208D10121EC
:101780004020FFF77DFF00214020FFF779FF16E0A2
:10179000B348844208D101218020FFF771FF002166
:1017A0008020FFF76DFF0AE0AE48844207D1012197
:1017B0008015FFF765FF0021A015FFF761FF10BD41
:1017C00010B501210846FFF75BFF00210120FFF75C
:1017D00057FF10BD2DE9F0410246002500260020EC
:1017E00000230024002791F803C00CF00F0591F8A6
:1017F00003C00CF0100CBCF1000F03D091F802C034
:101800004CEA050591F800C0BCF1000F31D0146816
:1018100000202BE04FF0010C0CFA00F3B1F800C0EF
:101820000CEA03069E4220D183004FF00F0C0CFA05
:1018300003F7BC4305FA03FC4CEA040491F803C027
:10184000BCF1280F06D14FF0010C0CFA00FCC2F8D5
:1018500014C00AE091F803C0BCF1480F05D14FF065
:10186000010C0CFA00FCC2F810C0401C0828D1D3AF
:101870001460B1F800C0BCF1FF0F34DD54680020E3
:101880002EE000F1080C4FF0010808FA0CF3B1F853
:1018900000C00CEA03069E4221D183004FF00F0CDA
:1018A0000CFA03F7BC4305FA03FC4CEA040491F874
:1018B00003C0BCF1280F05D100F1080C08FA0CF8A0
:1018C000C2F8148091F803C0BCF1480F07D100F1B1
:1018D000080C4FF0010808FA0CF8C2F81080401C00
:1018E0000828CED35460BDE8F0814FF6FF71018027
:1018F000022181700421C170704702460020936864
:101900000B400BB1012000E00020704701468868C1
:1019100080B2704702460020D3680B400BB1012013
:1019200000E0002070470146C86880B2704701613E
:101930007047416170470AB1016100E04161704741
:10194000C16070474FF480320A43826181618261D5
:1019500082698269704702460020434B18684FF63F
:101960008073184040EA021008433F4B18607047EC
:101970003E49C8617047F0B50A46002300240021A3
:10198000002500F00046B6F1004F02D1364EF16955
:1019900001E0354E7168C0F3034583B200F4401690
:1019A000B6F5401F08D121F070612F4E766826F001
:1019B00070662D4F7E6012E000F48016B6F5801F31
:1019C00006D1032606FA05F4A14341F0706106E052
:1019D000460D360103FA06F6B14341F0706122B1BB
:1019E000460D360103FA06F6314300F00046B6F123
:1019F000004F02D11C4EF16101E01B4E7160F0BD41
:101A000030B500228B071C0F0F2303FA04F2164B8C
:101A100008338C1053F824309343134C08348D1042
:101A200044F8253023468C1053F824308C07240FBB
:101A300000FA04F423430C4C08348D1044F825308C
:101A400030BD0A49DC3108607047000000080140E1
:101A5000000C01400010014000140140001801403A
:101A6000001C014000200140000001400000204215
:101A700010B50446FB48844209D101218803FFF7D1
:101A8000FFFD00214FF48040FFF7FAFD32E0F648F9
:101A9000844209D101214804FFF7FFFD00214FF4E2
:101AA0000030FFF7FAFD25E0F048844209D101211A
:101AB0008804FFF7F2FD00214FF48020FFF7EDFDD1
:101AC00018E0EB48844209D10121C804FFF7E5FD85
:101AD00000214FF40020FFF7E0FD0BE0E5488442D1
:101AE00008D101210805FFF7D8FD00214FF480102F
:101AF000FFF7D3FD10BD2DE9F04786B005460E4631
:101B00000024A24600BFA1460027B08900B100BF53
:101B10002F462C8A4CF6FF700440F08804432C8238
:101B2000AC894EF6F3100440B088318908437189BE
:101B300008430443AC81AC8A4FF6FF400440B089AF
:101B40000443AC8201A8FFF714FDC648874202D1C6
:101B5000DDF810A001E0DDF80CA0A88900F4004039
:101B600040B10AEBCA0000EB0A1031684900B0FB33
:101B7000F1F807E00AEBCA0000EB0A1031688900AF
:101B8000B0FBF1F86420B8FBF0F0040120096421F7
:101B900001FB1089A88900F4004040B1322000EB1D
:101BA000C900B0FBF1F000F00700044308E0322068
:101BB00000EB09106421B0FBF1F000F00F000443CA
:101BC0002C8106B0BDE8F0874FF41651016000216A
:101BD0008180C18001810C21418100218181704778
:101BE00010B502460020108A4FF2FF0318400B8800
:101BF0004C8823438C882343CC882343184310828A
:101C000010BD0021018041808180C180704721B1D9
:101C1000828942F40052828104E082894DF6FF738A
:101C20001A4082817047F0B5034600240026002543
:101C3000002040F66A17B94200D100BF1846C1F330
:101C4000421401F01F06012707FA06F5012C01D105
:101C50000C3004E0022C01D1103000E014301AB135
:101C600007682F43076002E00768AF430760F0BDD5
:101C70001AB1838A0B43838202E0838A8B43838277
:101C80007047028A4FF6F0731A400282028A0A43B2
:101C90000282704782894FF2FF731A4082818289E3
:101CA0000A438281704721B1828942F00202828117
:101CB00004E082894FF6FD731A4082817047028AE0
:101CC0004FF6DF731A400282028A0A43028270478B
:101CD00021B1028A42F48042028204E0028A4BF679
:101CE000FF731A4002827047C1F308028280704776
:101CF00001468888C0F308007047818941F00101DE
:101D000081817047028BD2B20283028B42EA0122A8
:101D100002837047028B02F47F420283028B0A43E4
:101D20000283704721B1828A42F02002828204E05D
:101D3000828A4FF6DF731A408282704721B1828A0D
:101D400042F01002828204E0828A4FF6EF731A405A
:101D50008282704721B1828A42F00802828204E0C6
:101D6000828A4FF6F7731A408282704721B18289C6
:101D700042F40042828103E08289C2F30E02828132
:101D8000704721B1828A42F40062828204E0828A32
:101D90004FF2FF731A4082827047828A4FF6FB73BC
:101DA0001A408282828A0A438282704721B1828AE3
:101DB00042F00202828204E0828A4FF6FD731A40EA
:101DC0008282704702460020B1F5007F00D100BF3B
:101DD00013880B400BB1012000E00020704701F494
:101DE0000072B2F5007F00D100BFCA430280704785
:101DF00070B50246002400230025002040F66A1634
:101E0000B14200D100BFC1F3421501F01F0301260A
:101E100006FA03F3012D02D19689334006E0022D24
:101E200002D1168A334001E0968A33400C12012613
:101E300006FA04F41688344013B10CB1012000E016
:101E4000002070BD10B50022002340F66A14A142A4
:101E500000D100BF0A1201249440A3B2DC430480E5
:101E600010BD000000380140004400400048004020
:101E7000004C00400050004010B50446BE4884426B
:101E800008D101218014FFF7FBFB0021A014FFF70C
:101E9000F7FB16E0B948844208D101210014FFF78E
:101EA000FCFB00212014FFF7F8FB0AE0B448844251
:101EB00007D10121C013FFF7F0FB0021E013FFF76A
:101EC000ECFB10BD10B50022028802F441520B88D1
:101ED0004C8823438C882343CC8823430C89234399
:101EE0004C8923438C892343CC8923431A430280A2
:101EF000838B4FF2FF74234083830B8A038210BDD0
:101F00002DE9F04F85B005460C464FF00009022739
:101F10004FF000084FF0010B0026B246A88B4FF29D
:101F200040010840A88302202884B5F81C90A068CE
:101F3000022801D100BF38E0A08810B94FF0010B92
:101F400001E04FF0020B8D48854200D100E000BF58
:101F50006846FFF70EFBDDF800A0E088B0F5007FD3
:101F60000AD14FEA1A2000EB80004000A168B0FBC4
:101F7000F1F0401D86B20BE04FEA4B10BAFBF0F0D7
:101F800000EB80004000A168B0FBF1F0401D86B27C
:101F90000A20B6FBF0F606F00108A6EB0800C0F335
:101FA0004F074FF6FF7000EA0828022F01DBFF2FD2
:101FB00002DD02274FF00008E08840EA08003843BD
:101FC0002884A088A18908436188084321880843A0
:101FD00040F4006040EA0909A5F81C9005B0BDE88E
:101FE000F08F0021018041808180C1800181418189
:101FF0008181C181072101827047002101804180D8
:102000008180C1800221816000218181704721B1DE
:10201000028842F04002028004E002884FF6BF735B
:102020001A400280704721B1828B42F48062828321
:1020300004E0828B4FF6FF331A408283704730B53D
:10204000002400230C110125A540ABB21AB18588EC
:102050001D43858002E085889D43858030BD1AB18F
:1020600083880B43838002E083888B43838070479F
:10207000818170470146888970474FF6FF6291421F
:1020800004D0028842F48072028004E002884FF695
:10209000FF631A400280704721B1828842F0040237
:1020A000828004E082884FF6FB731A40828070477A
:1020B00002884FF2FF731A40028002880A430280AE
:1020C0007047018841F480510180704721B1028836
:1020D00042F40052028004E002884DF6FF731A4079
:1020E0000280704702460020012901D0108B00E0D9
:1020F000908A70470146088A7047B1F5804F04D135
:10210000028842F48042028004E002884BF6FF73AA
:102110001A40028070470246002013890B400BB121
:10212000012000E000207047CA4302817047F0B5EB
:102130000246002000240023002501F00F0701269D
:10214000BE40B4B20B1101269E40B3B2968806EA97
:1021500003051689264016B10DB1012000E00020CC
:10216000F0BD10B5002201F00F040123A3409AB284
:10217000D343038110BD000000300140003800400F
:10218000003C004031490143314A1160704770B54D
:10219000002100230F22C47804B32D4C246804F4DA
:1021A000E064C4F5E064210AC1F10403CA40447844
:1021B00004FA03F18478144021430901254C067880
:1021C000A155047804F01F050124AC4005786D1179
:1021D000AD0005F1E025C5F8004109E0047804F000
:1021E0001F050124AC401C4D0678761145F82640A9
:1021F00070BD1A4A0A400243154B1B1F1A607047F4
:1022000039B1134A121D12680243114B1B1D1A608B
:1022100006E00F4A121D126882430D4B1B1D1A6007
:102220007047042808D14FF0E021096941F004010A
:102230004FF0E022116107E04FF0E021096921F041
:1022400004014FF0E0221161704700000000FA0520
:102250000CED00E000E400E080E100E080FFFF1F03
:1022600010B50446FE48844208D10121C014FFF78E
:1022700007FA0021E014FFF703FAC4E0B4F1804F3D
:1022800008D101210846FFF708FA00210120FFF7D5
:1022900004FAB8E0F348844208D101210220FFF794
:1022A000FCF900210220FFF7F8F9ACE0EE48844287
:1022B00008D101210420FFF7F0F900210420FFF7E5
:1022C000ECF9A0E0E948844208D101210820FFF799
:1022D000E4F900210820FFF7E0F994E0E4488442A3
:1022E00008D101211020FFF7D8F900211020FFF7B5
:1022F000D4F988E0DF48844208D101212020FFF78B
:10230000CCF900212020FFF7C8F97CE0DA488442AC
:1023100008D101214014FFF7B3F900216014FFF741
:10232000AFF970E0D548844209D10121C804FFF714
:10233000A7F900214FF40020FFF7A2F963E0D0488D
:10234000844209D101210805FFF79AF900214FF4D1
:102350008010FFF795F956E0CA48844209D101215F
:102360004805FFF78DF900214FF40010FFF788F9B9
:1023700049E0C548844208D101214020FFF78DF98A
:1023800000214020FFF789F93DE0C048844208D190
:1023900001218020FFF781F900218020FFF77DF9DE
:1023A00031E0BB48844208D101218015FFF775F95F
:1023B0000021A015FFF771F925E0B648844209D144
:1023C00001210804FFF75CF900214FF48030FFF78A
:1023D00057F918E0B048844209D101214804FFF7B9
:1023E0004FF900214FF40030FFF74AF90BE0AB48FA
:1023F000844208D101218804FFF742F900214FF4FB
:102400008020FFF73DF910BD00220288944B9842CE
:102410000ED0994B98420BD0B0F1804F08D0914B21
:10242000984205D0904B984202D0904B984204D1EC
:102430004FF68F731A404B881A438D4B984207D042
:102440008C4B984204D04FF6FF431A40CB881A4376
:1024500002808B8883850B880385814B98420BD043
:10246000854B984208D08B4B984205D08A4B9842B6
:1024700002D08A4B984201D10B7A038601238382D2
:10248000704770B5002400220023058C4FF6FE76BD
:1024900035400584028C8388048B4FF68F752C4061
:1024A000B51E2C400D882C43751E2A400D892A43E9
:1024B0004D882A436A4DA8420BD06F4DA84208D0E0
:1024C000744DA84205D0744DA84202D0734DA84265
:1024D00013D14FF6F7752A404D892A434FF6FB7505
:1024E0002A408D882A434FF6FF652B404FF6FF5553
:1024F0002B408D892B43CD892B4383800483CD884A
:102500008586028470BD70B5002400220023058CEE
:102510004FF6EF7635400584028C8388048B48F6AD
:10252000FF752C404FF6FF452C400D884FF6FF7687
:1025300006EA05252C434FF6DF752A400D8906EA89
:1025400005152A434D8806EA05152A43444DA8423D
:1025500002D0494DA8421DD14FF67F752A404D89C2
:102560004FF6FF7606EA05152A434FF6BF752A4057
:102570008D8806EA05152A434FF6FF352B404FF2AA
:10258000FF752B408D8906EA85052B43CD8906EA28
:1025900085052B4383800483CD880587028470BD25
:1025A00070B5002400220023058C4FF6FF663540ED
:1025B0000584028C8388848B4FF68F752C404FF6F0
:1025C000FC752C400D882C434FF6FF552A400D8991
:1025D0004FF6FF7606EA05252A434D8806EA0525CB
:1025E0002A431F4DA84202D0234DA8421DD14FF2CD
:1025F000FF752A404D894FF6FF7606EA05252A43E6
:102600004FF6FF352A408D8806EA05252A434EF607
:10261000FF752B404DF6FF752B408D8906EA051599
:102620002B43CD8906EA05152B4383808483CD880F
:102630008587028470BD70B5002200230024058CBC
:102640004EF6FF7635400584038C8488828B48F6ED
:10265000FF752A404FF6FF452A400D8820E0000014
:10266000002C01400004004000080040000C004025
:10267000001000400014004000340140004C0140B4
:10268000005001400054014000180040001C004070
:10269000002000400040014000440140004801404B
:1026A0004FF6FF7606EA05252A434DF6FF752B40C7
:1026B0000D8906EA05352B434D8806EA05352B437F
:1026C000FA4DA84202D0FA4DA84208D14BF6FF7548
:1026D0002C408D894FF6FF7606EA85152C438480C1
:1026E0008283CD88A0F84050038470BD828B4FF266
:1026F000FF331A408283828B4FF6FF7303EA012374
:102700001A4382837047F0B50C461546002200211B
:102710000026078C4EF6FF7C07EA0C070784828BA5
:10272000018C4FF6FF7707EA043640F6FF473A4040
:102730004FF6FF7707EA05273A434FF6FF7707EA98
:1027400003373A43D94FB8420ED0D94FB8420BD0D5
:10275000B0F1804F08D0D74FB84205D0D64FB8421D
:1027600002D0D64FB84206D14DF6FF77394046F435
:102770008057394305E047F6FF57394044F4805706
:10278000394382830184F0BD828B4FF6F3731A4084
:102790008283828B0A4382837047F0B50C461546CC
:1027A000002200210026078C4FF6FF6C07EA0C0779
:1027B0000784828B018C4FF6FF7707EA04264FF6D9
:1027C0000C773A404FF6FF7707EA03172F433A4357
:1027D000B64FB8420ED0B64FB8420BD0B0F1804FD2
:1027E00008D0B44FB84205D0B34FB84202D0B34F6F
:1027F000B84206D14FF6FF57394046F48077394347
:1028000005E04FF2FF57394044F480773943828323
:102810000184F0BD028B4FF2FF331A400283028B1A
:102820004FF6FF7303EA01231A4302837047F0B5A2
:102830000C461546002200210026078C4FF6EF7C3F
:1028400007EA0C070784028B018C4FF6FF7707EA33
:10285000041640F6FF473A404FF6FF7707EA033782
:102860003A434FF6FF7707EA05273A438F4FB842BE
:102870000ED08F4FB8420BD0B0F1804F08D08D4FA3
:10288000B84205D08C4FB84202D08C4FB84206D126
:102890004FF6DF77394046F01007394305E04FF631
:1028A0005F77394044F01007394302830184F0BD5B
:1028B000028B4FF6F3731A400283028B0A430283A2
:1028C0007047F0B50C46154600220021068C4FF6E5
:1028D000FE773E400684028B018C4FF60C76324028
:1028E0007E1C06EA03162E433243704EB0420ED0D1
:1028F0006F4EB0420BD0B0F1804F08D06D4EB04259
:1029000005D06D4EB04202D06C4EB04206D14FF6AB
:10291000FD76314044F00106314305E04FF6F5768F
:10292000314044F00106314302830184F0BD70B5AB
:1029300005460C465D4885420ED05D4885420BD069
:10294000B5F1804F08D05B48854205D05A48854292
:1029500002D05A48854200D100E000BF208850B91B
:102960002389A28861882846FFF7ABFFE1882846C3
:10297000FFF79EFF25E0208804280AD12389A2883A
:1029800061882846FFF753FFE1882846FFF742FF9A
:1029900017E0208808280AD12389A2886188284660
:1029A000FFF7FBFEE1882846FFF7EEFE09E02389EA
:1029B000A28861882846FFF7A6FEE1882846FFF72F
:1029C00095FE70BD2DE9F04105460C460026012715
:1029D000608808B9022600E00026A088012801D1FD
:1029E000022700E001272088A0B92389A2886188F6
:1029F0002846FFF766FFE1882846FFF759FF23893D
:102A00003A4631462846FFF712FFE1882846FFF78D
:102A100001FF13E02389A28861882846FFF707FF9A
:102A2000E1882846FFF7F6FE23893A4631462846D4
:102A3000FFF747FFE1882846FFF73AFFBDE8F0813E
:102A40000A884B881A438B881A43CB881A430B8910
:102A50001A434B891A438B891A43A0F844207047C4
:102A60004FF6FF71818000210180C1804180017299
:102A700070470021018041808180C18001814181B6
:102A80008181C181704700210180418001218180C5
:102A90000021C18001817047002101804180818037
:102AA000C18001814181818170470000002C01407B
:102AB000003401400004004000080040000C0040C9
:102AC00021B1028842F00102028004E002884FF640
:102AD000FE731A400280704731B1B0F8442042F4CE
:102AE0000042A0F8442005E0B0F84420C2F30E02F2
:102AF000A0F8442070471AB183890B43838102E018
:102B000083898B43838170478182704741EA020346
:102B1000A0F8483070471AB183890B43838102E0E3
:102B200083898B438381704701894FF6F872114086
:102B3000018170470A46002101894FF68F731940C1
:102B400011430181704730B504460D4629462046A1
:102B5000FFF7F0FF208940F00700208130BD2DE90C
:102B6000F04104460D4616461F46602D06D13B46F1
:102B7000012231462046FFF75AFE05E03B4601227E
:102B800031462046FFF79DFE29462046FFF7D2FF3B
:102B9000208940F007002081BDE8F08130B50C4667
:102BA00000210189C9B24FF6FF7505EA03251543D7
:102BB00025432943018130BD2DE9F04105460E46EC
:102BC00017469846002443463A4631462846FFF7C2
:102BD000E5FF2C894FF6F870044044F007044FF6E7
:102BE0008F70044044F070042C81BDE8F081F0B592
:102BF00004460D4616461F463B46324629462046A9
:102C0000FFF7CCFF208940F480402081F0BD018592
:102C1000828270470A46002101884FF68F7319405F
:102C2000114301807047F0B50C4615461E46002141
:102C3000002200230189028B038C4FF6F87739407C
:102C400021434FF6FC473A4040F201173A434FF612
:102C5000DD773B404FF6FF7707EA06172F433B43EC
:102C6000018102830384F0BD0A460021018B4FF6E7
:102C70008F7319401143018370470A460021018B6D
:102C800048F6FF7319404FF6FF7303EA0223194316
:102C9000018370470A460021818B4FF68F731940DC
:102CA0001143818370470A460021818B48F6FF73E8
:102CB00019404FF6FF7303EA0223194381837047DB
:102CC00021B1028842F08002028004E002884FF6BF
:102CD0007F731A400280704721B1828842F004025B
:102CE000828004E082884FF6FB731A40828070472E
:102CF00021B1828842F00802828004E082884FF687
:102D0000F7731A408280704721B1828842F0010235
:102D1000828004E082884FF6FE731A4082807047FA
:102D20000A460021018B4FF6F773194011430183C6
:102D300070470A460021018B4FF2FF7319404FF68E
:102D4000FF7303EA02231943018370470A460021F7
:102D5000818B4FF6F77319401143818370470A4600
:102D60000021818B4FF2FF7319404FF6FF7303EA86
:102D700002231943818370470A460021018B4FF6D5
:102D8000FB7319401143018370470A460021018BF0
:102D90004FF6FF3319404FF6FF7303EA022319433E
:102DA000018370470A460021818B4FF6FB7319405F
:102DB0001143818370470A460021818B4FF6FF3310
:102DC00019404FF6FF7303EA0223194381837047CA
:102DD0000A460021018B4FF67F731940114301838E
:102DE00070470A460021018BC1F30E014FF6FF73B5
:102DF00003EA02231943018370470A460021818BAD
:102E00004FF67F7319401143818370470A460021B2
:102E1000818BC1F30E014FF6FF7303EA02231943BE
:102E2000818370470A460021018C4FF6FD731940DB
:102E30001143018470470A460021018C4FF6F77355
:102E400019401143018470470A460021018C4FF656
:102E5000DF7319404FF6FF7303EA0213194301842D
:102E600070470A460021018C4FF67F7319404FF6D8
:102E7000FF7303EA02131943018470470A460021D5
:102E8000018C4FF6FF5319404FF6FF7303EA0223FC
:102E90001943018470470A460021018C4FF2FF73E9
:102EA00019404FF6FF7303EA022319430184704768
:102EB0000A460021018C4DF6FF7319404FF6FF734F
:102EC00003EA023319430184704730B5002301241B
:102ED0008C40A3B2048C9C430484048C02FA01F558
:102EE000ADB22C43048430BD30B5002304248C40A3
:102EF000A3B2048C9C430484048C02FA01F5ADB2A5
:102F00002C43048430BD70B50346002000241846CD
:102F1000183001258D40ACB21D8CA5431D8409B12C
:102F2000082909D100EB6100056825F070050560EE
:102F30000568154305600EE00D1FC5F34E052844D6
:102F4000056825F4E045056005684FF6FF7606EA5A
:102F500002263543056070BD21B1028842F00202AD
:102F6000028004E002884FF6FD731A400280704729
:102F700021B1028842F00402028004E002884FF688
:102F8000FB731A400280704721B1828842F08002B0
:102F9000828004E082884FF67F731A4082807047F7
:102FA00002884FF6F7731A40028002880A430280B3
:102FB000704782884FF68F731A40828082880A4356
:102FC0008280704702894FF6F8731A4002810289A5
:102FD0000A430281704702894FF67F731A400281CB
:102FE00002890A4302817047818470478185704756
:102FF000818670470187704781877047A0F840102D
:10300000704702884FF6FF431A40028002880A4345
:10301000028070470146888E70470146088F7047CE
:103020000146888F70470146B1F84000704701465D
:10303000888C70470146088D704702460020138A2D
:103040000B400BB1012000E000207047CA43028210
:10305000704730B50246002000230024158A05EA97
:103060000103958905EA010413B10CB1012000E0C8
:10307000002030BDCA430282704700000CB500201A
:10308000019000906C48006840F480306A49086004
:1030900000BF6948006800F4003000900198401CAF
:1030A0000190009818B90198B0F5A06FF1D162486D
:1030B000006800F4003010B10120009001E0002011
:1030C00000900098012843D15C48006840F010004F
:1030D0005A4908600846006820F003000860084666
:1030E000006840F002000860534840685249486058
:1030F0000846406848600846406840F48060486080
:103100000846406820F47C1048600846406840F457
:10311000E81048600846006840F08070086000BF12
:103120004548006800F000700028F9D04248406827
:1031300020F00300404948600846406840F0020023
:10314000486000BF3C48406800F00C000828F9D1F6
:103150000CBD10B5FFF792FF10BD10B536480068E2
:1031600040F001003449086008464068344908408E
:103170003149486008460068324908402E490860D5
:103180000846006820F4802008600846406820F463
:10319000FE0048604FF41F008860FFF7DAFF4FF031
:1031A00000602949086010BD10B5002100200022F0
:1031B000214B5B6803F00C0121B1042906D00829DA
:1031C00028D107E0214B224C236027E01F4B204CE5
:1031D000236023E0184B5B6803F47010164B5B68A8
:1031E00003F48032022303EB904022B9194B43438E
:1031F000174C23600DE0104B5B6803F4003323B1E0
:10320000144B4343124C236003E0104B4343104CD8
:10321000236003E00D4B0E4C236000BF00BF064B44
:103220005B68C3F303130C4CE15C094B1B68CB4098
:10323000074C236010BD0000001002400020024037
:103240000000FFF8FFFFF6FE08ED00E000127A0034
:103250004400002000093D004800002040EA01032E
:103260009B0703D009E008C9121F08C0042AFAD23C
:1032700003E011F8013B00F8013B521EF9D2704700
:10328000421C10F8011B0029FBD1801A704730B591
:1032900004460020034600E05B1C934203D2E05C3E
:1032A000CD5C401BF8D030BD30B50B460146002048
:1032B0002022012409E021FA02F59D4205D303FAF8
:1032C00002F5491B04FA02F52844151EA2F1010279
:1032D000F1DC30BD2DE9F05F0546002092469B46AB
:1032E00088460646814640241BE02846414647461C
:1032F000224600F0FAF953465A46C01A914110D3BB
:1033000011461846224600F0E1F92D1A67EB010834
:103310004F4622460120002100F0D8F917EB0009A2
:103320004E41201EA4F10104DFDC484631462A4606
:103330004346BDE8F09F2DE9FE4F804681EA030039
:10334000C00F0C46009021F0004123F00045B8EB7F
:103350000200A94105D24046214690461C460B4634
:10336000024623F00040104347D0270DC7F30A0060
:10337000C3F30A510290401A019040286BDAC3F35C
:10338000130040F4801B0098924620B10023D2EB3A
:10339000030A63EB0B0B01985946C0F140025046FB
:1033A00000F094F906460D4650465946019A00F041
:1033B000ACF910EB08006141002487EA115284EA5D
:1033C000E7731A4340D0009A62B3019A012A4FEA88
:1033D000075215DC001B61EB02014FF0004202EACC
:1033E0000752CDE90042001C41F5801132462B46C0
:1033F00000F0ACF903B0BDE8F08F40462146F9E794
:10340000001B61EB0201001C41F5801300185B41B9
:103410002018A2F5001747EB030140EAD570B61952
:103420006D4111E06D084FEA360645EAC0754FEA76
:103430000752001B61EB0201001C41F58011490895
:103440004FEA30000019514132462B4603B0BDE827
:10345000F04F00F06CB90098012240000023D0EB3F
:10346000020263EBE073009821464FEAE074B8EB88
:10347000000061EB0401E9E783F000435BE781F0C2
:10348000004158E72DE9FE4F81EA030404F00044AF
:1034900021F0004100944FF0000B23F0004350EA6C
:1034A00001045ED052EA03045BD0C3F30A54C1F3B3
:1034B0000A552C44A4F2F3340194A0FB0254C1F346
:1034C000130141F48011C3F3130343F4801301FB90
:1034D000024400FB034E840A970A44EA815447EAF7
:1034E0008357A4FB076802958D0A05FB07854FEA01
:1034F000932C04FB0C542705029D4FEA065847EA1B
:103500001637B5EB08056EEB070C870E920E47EAEF
:10351000811742EA8312A7FB0201B6EB0B0164EBB1
:1035200000042B0D43EA0C335E1844EB1C50DA46C2
:103530005146E7FB0201C5F313044FEA0B3343EA9C
:1035400014534FEA0432019C43EA0603A4F10C042D
:103550000294009CCDE900B400F0F8F803B0BDE897
:10356000F08F00200146F9E72DE9F04D81EA0304D0
:1035700004F0004B21F0004514464FF0000A23F000
:10358000004150EA050220D054EA01021DD0C5F3E3
:103590000A570246C5F31303C1F31300C1F30A56D9
:1035A00040F4801543F48013A7EB0608101BD646A1
:1035B00008F2FD3873EB050002D308F1010801E0C1
:1035C00092185B41B8F1000F03DA00200146BDE814
:1035D000F08D00204FF48011064684460EE0171B44
:1035E00073EB050705D3121B63EB050306434CEA97
:1035F000010C49084FEA300092185B4150EA01077C
:10360000EDD152EA030012D082EA040083EA0501F8
:10361000084305D0101BAB4106D20122002306E06F
:1036200000224FF0004302E06FF0010253101AEB4A
:1036300006004CEB085110EB0A0041EB0B01BDE812
:10364000F04D00F074B8C1F30A52C1F3130140F217
:10365000FF3341F480119A4202DA0020014670479C
:1036600040F233439A42A2F2334202DC524200F06B
:103670003CB800F02BB8000030B5041E71F1000416
:1036800004DB4FF00044404264EB0101141E73F16F
:10369000000405DB1C464FF00043524263EB040379
:1036A000994208BF904230BD064C074D06E0E068E5
:1036B00040F0010394E8070098471034AC42F6D379
:1036C000FCF73AFD6C4100088C410008202A04DB1D
:1036D000203A00FA02F1002070479140C2F1200325
:1036E00020FA03F3194390407047202A04DB203A64
:1036F00021FA02F00021704721FA02F3D040C2F112
:1037000020029140084319467047202A06DBCB1758
:10371000203A41FA02F043EAE07306E041FA02F38C
:10372000D040C2F12002914008431946704710B5BD
:10373000141E73F1000408DA401C41F100019218D4
:103740005B411A4301D120F0010010BD2DE9F04D7D
:1037500092469B4611B1B1FA81F202E0B0FA80F2D2
:1037600020329046FFF7B2FF04460F4640EA0A00B7
:1037700041EA0B0153465A46084313D0114653EA17
:10378000010019D0C8F140025046FFF7AEFF0546D0
:103790000E46504659464246FFF798FF084305D06B
:1037A000012004E020463946BDE8F08D00200543A5
:1037B00046EAE0762C4337430A986305E40AA0EB17
:1037C00008000022FD0A44EA47540A3002D50020CE
:1037D0000146E9E7010510196941DDE908450019CD
:1037E0006941BDE8F04DA2E70FB4054B10B503A940
:1037F000044A029800F0ECF810BC5DF814FB0000DD
:10380000350300085800002037B514460846064B1B
:103810006A46214600F0DCF804466946002000F0C4
:103820006EFC20463EBD0000FF40000802E008C8D4
:10383000121F08C1002AFAD170477047002001E02A
:1038400001C1121F002AFBD1704700002DE9FF5F64
:1038500082B00021DDE90430020DDDF840B0034301
:1038600018D044F61050A2F2FF32424315141198BA
:1038700001281FD0A5EB0B00401C5FEA000A4FF0A7
:1038800000064E4FDFF83891B046504615D5CAF1C4
:10389000000413E0119801244AA3012801D16FEA22
:1038A0000B010298119AC0E90031C0E9024206B04A
:1038B000BDE8F09FCBF10000DFE704460021404A5D
:1038C000491842EB0450CDE9001012E0E00707D0A0
:1038D00032463B4640464946FFF7D4FD804689467E
:1038E00032463B4610461946FFF7CCFD06460F46CA
:1038F0006410002CEAD1DDE90401DDE90023BAF10E
:10390000000F06DAFFF7BEFD42464B46FFF7BAFD51
:1039100005E0FFF729FE42464B46FFF725FE044629
:103920000E460022284BFFF7A7FE03D84FF0FF30CA
:10393000014607E00022254B20463146FFF7FBFCFD
:10394000FFF781FE102409E0002C0ADB0A22002385
:10395000FFF7C0FC039B30321A55641E50EA010287
:10396000F2D1641C039AC4F111031444119A012A80
:1039700003D0012208430DD10AE0084304D00020FF
:103980004FF0110B119072E7A3EB0B056D1E0DE0CC
:103990005B4504DD4FF0000205F1010504E003DAA8
:1039A0004FF00002A5F10105002AECD00298119910
:1039B000C0E90231C0E9004579E700000000144089
:1039C0000000F03F300000000000F0430000E03F46
:1039D0002DE9FF4F95B09B468946064600250FE22C
:1039E000252877D100242746F84A0121059400E0D4
:1039F000044316F8013F203B01FA03F01042F7D1CF
:103A000030782A2811D06FF02F033078A0F13002DF
:103A1000092A16D8059A44F0020402EB820203EB4D
:103A200042021044761C0590EFE759F8042B0592EA
:103A3000002A03DA504244F40054059044F0020492
:103A4000761C30782E2816D116F8010F44F00404A5
:103A50002A280DD06FF02F023078A0F13003092B07
:103A600009D807EB870302EB4303C718761CF3E77B
:103A700059F8047B761C30786C280FD006DC4C2873
:103A800017D068280DD06A2814D104E0742810D00B
:103A90007A280FD10DE044F400140AE044F48014B5
:103AA00001E044F440147278824202D104F580149B
:103AB000761C761C307866280BD013DC582877D01B
:103AC00009DC002875D04528F6D04628F4D04728D0
:103AD0001AD19DE118E0632835D0642879D0652893
:103AE00012D195E1702873D008DC6728F1D06928DD
:103AF0006FD06E280DD06F2806D1B5E073282CD07A
:103B0000752875D0782874D05A46179990476D1C3F
:103B100075E1C4F30250022809D003280DD0D9F86A
:103B2000001004280DD00D6009F1040967E1D9F8EF
:103B30000010EA17C1E90052F6E7D9F800100D802D
:103B4000F2E70D70F0E719F8041B8DF80010002063
:103B50008DF80100EA46012003E059F804AB4FF06C
:103B6000FF3061074FF0000102D40DE008F10101C0
:103B70008846B9420FDA8045F8DB1AF808100029A8
:103B8000F4D108E008F1010188468142FADB1AF815
:103B900008100029F6D105985B46A0EB08072146DE
:103BA0003846179A00F094FA284400EB080507E01D
:103BB0004DE029E10DE01AF8010B5A46179990479C
:103BC000B8F10108F7D25B4621463846179A13E14F
:103BD00042E00A220092C4F302524FF0000A022A85
:103BE00008D059F804CB032A4FEAEC710AD00DE053
:103BF00029E02AE009F1070121F00702F2E802C1F9
:103C0000914609E00FFA8CFC4FEAEC71042A03D1CB
:103C10004FFA8CFC4FEAEC71002907DA0A460021C2
:103C2000DCF1000C61EB02012D2202E0220504D53B
:103C30002B228DF80420012203E0E20701D020228C
:103C4000F7E7904659E00A2102E010220DE010212A
:103C50004FF0000A00910BE010224FF0000A44F0F0
:103C600004040827009203E008224FF0000A0092A3
:103C7000C4F30252022A05D059F804CB0021032ACA
:103C800008D009E009F1070121F00702F2E802C1BA
:103C9000914605E01FFA8CFC042A01D10CF0FF0CC0
:103CA0004FF00008220728D5702806D0009B83F02B
:103CB000100353EA0A0305D00EE040228DF80420D9
:103CC000012208E05CEA010206D030228DF80420CF
:103CD0008DF8050002229046009B83F0080353EA0A
:103CE0000A030AD15CEA010201D1620705D530223C
:103CF0008DF804204FF001087F1E582804D034A00E
:103D000003900EA802900DE036A0F9E753466046F6
:103D1000009AFFF7DFFA84460398825C0298401EFF
:103D2000029002705CEA0100F0D1029806A9081A1C
:103D300000F1200A600702D524F4803400E0012756
:103D4000574502DDA7EB0A0000E0002000EB0A0166
:103D5000009005984144401A0590E00306D45B4664
:103D60002146179A059800F0B3F90544002706E0AC
:103D700001A85A46C05D179990476D1C7F1C4745A6
:103D8000F6DBE0030CD55B462146179A059800F058
:103D90009FF9054404E030205A46179990476D1C5E
:103DA0000099481E00900029F5DC08E0029802996D
:103DB0005A460078491C0291179990476D1CBAF138
:103DC0000001AAF1010AF1DC65E100000928010007
:103DD0003031323334353637383961626364656681
:103DE0000000000030313233343536373839414243
:103DF000434445460000000000F058F90544761C95
:103E0000307800287FF4ECAD19B02846BDE8F08F7B
:103E1000620700D4062709F1070222F0070CFCE82C
:103E20000223E14603F000485FEA080C02D00FF2DB
:103E3000702C0DE05FEA045C02D50FF2682C07E0FD
:103E40005FEAC47C02D00FF2602C01E0AFF2700C8C
:103E50004FF0FF3823F00043CDF850C065280CD058
:103E600006DC452809D046281DD047283DD13DE035
:103E7000662818D067287ED138E00021112F01DB99
:103E8000112000E0781CCDE9000106A90EA8FFF77B
:103E9000DDFCDDE90F010E9A03910021009207F18C
:103EA000010A04914DE04FF000400097CDE9011068
:103EB00006A90EA8FFF7CAFCDDE90F0203920E9BCC
:103EC00011990022DDF80CA00093049211B9791C1D
:103ED00000EB010AB7EB0A0004D4C0F1FF3007F190
:103EE000010A0490AAEB0700019044E0012F00DAD8
:103EF00001270021112F01DD112000E03846CDE916
:103F0000000106A90EA8FFF7A1FCDDE90F010E9A3A
:103F10000391002104910092BA4621070CD4039921
:103F2000514500DA8A46BAF1010F05DD009AAAF17F
:103F30000101515C302908D0B84202DA10F1040FB7
:103F400006DA0121CDE9011015E0AAF10101E9E746
:103F5000002805DC049901440491AAEB000102E069
:103F6000411C514500DD8A460499401A401C0190CD
:103F70004FF000400290200704D40198504501DB27
:103F8000CDF8048000208DF84F0002980DF14F0706
:103F9000B0F1004F25D02B200E9002984FF0020870
:103FA00000280CDA404202902D200E9007E00A21F2
:103FB0000298FFF779F93031029007F8011DB8F146
:103FC0000001A8F10108F2DC02980028EFD1791E67
:103FD0000E980870307800F0200040F0450007F897
:103FE000020D12A8C01B00F107081498007800B158
:103FF000012000EB0A01019801EBE07105984144B2
:10400000401A401E0590E00306D45B462146179AED
:10401000059800F05DF805441498007818B15A46E8
:10402000179990476D1CE00324D55B462146179AEB
:10403000059800F04DF805441CE00498002807DBC3
:10404000DDE90301884203DD0098405C179901E037
:10405000179930205A469047049805F10105401CF5
:1040600004900198401E019004D12E205A461799C1
:1040700090476D1CBAF10001AAF1010ADDDC05E0F0
:1040800017F8010B5A46179990476D1CB8F10001BB
:10409000A8F10108F4DC5B462146179A0598ABE6C7
:1040A0002D0000002B000000200000002DE9F04151
:1040B000044600251E461746880404D405E0394608
:1040C0002020B0476D1C641EF9D52846BDE8F0815C
:1040D0002DE9F041044600251E469046C80301D54F
:1040E000302700E02027880404D505E04146384603
:1040F000B0476D1C641EF9D52846BDE8F0810A68FA
:10410000531C0B60107070476D61696E00536574CD
:10411000576176655479706500776176655479707A
:10412000655465737400000020B8D0D0BBC4FAD1C8
:10413000A1D3C3B0ACB6FBC8FCB2FAC6B7202020EE
:10414000202020202020202020202020687474702F
:104150003A2F2F6C63746563682D696E632E7461EA
:104160006F62616F2E636F6D000000008C4100086C
:10417000000000205C0000002C380008E841000826
:104180005C000020D40700003C380008000000005C
:10419000010000000000000000000000000000001E
:1041A000000000000000000000000000000000000F
:1041B00000000000000000000700000000000102F5
:1041C00003040102030406070809020406080000AC
:1041D00000A24A04000000000000000001020304E5
:0841E0000607080900000000B9
:0400000508000131BD
:00000001FF
