:10009C00535443313546324B36305332205541524E
:1000AC00543220546573742050726772616D6D65A3
:0400BC00210D0A0008
:10004600E4F593F594F591F592F595F596F5B1F5F8
:10005600B2F5B3F5B4F5C9F5CAF5CBF5CCF5E1F5CE
:10006600E27F021200C0D2AF7BFF7A00799C1201B8
:1000760015E509650860FA2000F774212509F8E6F8
:10008600F59BD2000509C3E509942074809480404D
:06009600E0E4F50980DB47
:100115001200FC6010F59BD2002000FD740129F946
:06012500E43AFA80EB222F
:1000E200AD07AC06538EEF538EF7438E048CD6AF1A
:0A00F200058FD753AFFB438E102299
:1000C000EF6402701C7FD07EFF1200E2539A7F43E0
:1000D000AF01439A1053BAFE43BA01C200F509F5C5
:0200E0000822F4
:03004300020003B5
:10000300C0E0C0D075D000C000E59A5401601A5317
:100013009AFE74212508F8A69B0508C3E5089420D9
:10002300748094804003750800E59A540260055378
:0B0033009AFDC200D000D0D0D0E03217
:0300000002012BCF
:0C012B00787FE4F6D8FD758140020046A4
:1000FC00BB010689828A83E0225002E722BBFE0202
:09010C00E32289828A83E4932234
:00000001FF
