:0F134F007D367C07ED1D70011C144C70F7DFF12B
:01135E00226C
:0B09F30090013FEBF0A3EAF0A3E9F055
:1009FE00EF64026003020B519000007402F0E4A356
:100A0E00F0A3F0A3F0A3F0A3F0A3F0FFEFC3948044
:100A1E0074809480500F74872FF582E43400F58330
:100A2E00E4F00F80E7E4FFEFC3948074809480506D
:100A3E000F74072FF582E43400F583E4F00F80E79E
:100A4E0090013FE0FBA3E0FAA3E0F91203F7FF6485
:100A5E00C06008EF64406003020B0F90000A12049E
:100A6E00106401700543B501800353B5FE1203F700
:100A7E0064C07005439A808003539A7F90000212DF
:100A8E0005A57F807E8D7D5B7C001204EF90014278
:100A9E001205D5E4FFFE7D01FC900142E0F8A3E0D3
:100AAE00F9A3E0FAA3E0FBC312058140037F022203
:100ABE00900142E0F8A3E0F9A3E0FAA3E0FBC3E45F
:100ACE009BFFE49AFE740199FDE498FC900142129A
:100ADE0005D5538EEF538EF7438E04900142E0FC02
:100AEE00A3E0FDA3E0FEA3E0FF78081205928FD6E7
:100AFE00900142A3A3A3E0F5D753AFFB438E108022
:100B0E00037F022290013FE0FBA3E0FAA3E0F990FD
:100B1E0000091204106401700543AF01800353AF46
:100B2E00FE90000712041064017005439A108003B2
:100B3E00539AEF90000B1204105401FFE5BA54FEC5
:050B4E004FF5BA7F0025
:010B5300227F
:10129F00900002E02487F582E43400F583EFF090AC
:1012AF000002E004F0C39480748094804002E4F064
:0C12BF00900003E0700504F0439A022246
:101329001203F7FF600C12129F740129F9E43AFACB
:0313390080EE2221
:03004300020E3278
:100E3200C0E0C083C082C0D075D000C006C007E544
:100E42009A54016032539AFE900006E07029900095
:100E520004E0C39480748094804002E4F090000423
:100E6200E0FF04F074072FF582E43400F583E59B7C
:100E7200F09000057405F0E59A54026035539AFD2E
:100E8200900002E0FF900001E0FE6F602074872E68
:100E9200F582E43400F583E0F59B900001E004F074
:100EA200C39480748094804009E4F080059000032C
:0F0EB200E4F0D007D006D0D0D082D083D0E03289
:10115B00535443313546324B36305332205541527E
:10116B00543120546573742050726772616D6D65D4
:10117B00210D0A00535443313546324B363053322E
:10118B00205541525432205465737420507267724B
:10119B00616D6D65210D0A0072756E6E696E67006B
:101233009001087440F0A37401F0A31205E10001CA
:10124300C20090010F7401F0E4A3F0A304F0E4A33F
:10125300F0A3F0A3F07B017A0179087F0112006605
:091263007BFF7A11795B02133C58
:10126C009001087440F090010A1205E10001C200DF
:10127C0090010F7401F0900111F0E4A3F0A3F07B46
:10128C00017A0179087F021200667BFF7A11797F5F
:03129C0002132911
:10131300900109740CF09001087403F07B017A01C9
:061323007908FF020648F4
:1012CB00E4900108F0A3F0A304F0E4A3F0A304F06E
:1012DB00A374FFF0A37410F0A37401F0FB7A0179EF
:0612EB0008E4FF020829DF
:0100210022BC
:100C3C0012126C1213131212CB120021121233D295
:100C4C00AF7F0A12134F7BFF7A1179A312132990ED
:100C5C00014BE0D3940074809480403BE014F0701E
:100C6C003690014AE0D39400748094804024E49040
:100C7C000107F090014AE0FF900107E0FEC39F508E
:100C8C001174212EF8E6FF1212F1900107E004F026
:100C9C0080E1E490014AF0900005E0D39400748068
:100CAC009480409DE014F07098900004E0D3940080
:100CBC0074809480402AE4900107F0900004E0FFD7
:100CCC00900107E0FEC39F501774072EF582E434A1
:100CDC0000F583E0FF12129F900107E004F080DB27
:080CEC00E4900004F0020C4D3D
:10006600900116EBF0A3EAF0A3E9F0900115EFF08A
:100076006401600302028390014604F0E4A3F0A346
:10008600F0A3F0A3F0A3F0A3F0900119F0900119EA
:10009600E0FFC3942874809480500B74492FF8E4D1
:1000A600F6E004F080E7E4900119F0900119E0FF12
:1000B600C3942874809480500B74212FF8E4F6E0E2
:1000C60004F080E7900116E0FBA3E0FAA3E0F91242
:1000D60003F7FD7C00D394C07480948040037F01B5
:1000E6002290000A12041064017004D2BC8002C27D
:1000F600BC1203F7FFE598543F4FF598ED64C04CEA
:100106006008EF644060030201F49000021205A546
:100116007F807E8D7D5B7C001204EF90011A1205B4
:10012600D5E4FFFE7D01FC90011AE0F8A3E0F9A3F7
:10013600E0FAA3E0FBC312058140037F022290018F
:100146001AE0F8A3E0F9A3E0FAA3E0FBC3E49BFFFF
:10015600E49AFE740199FDE498FC90011A1205D503
:10016600900116E0FBA3E0FAA3E0F9900001120467
:1001760010FB7A0064017038C28E538EFE5389BF1D
:100186005389CF438E4090011AE0FCA3E0FDA3E023
:10019600FEA3E0FF78081205928F8D90011AA3A3A3
:1001A600A3E0F58BC2AB5389BF538FFDD28E807D02
:1001B600EB64024A7035538EEF438E01538EF7433C
:1001C6008E0490011AE0FCA3E0FDA3E0FEA3E0FF8D
:1001D60078081205928FD690011AA3A3A3E0F5D74B
:1001E60053AFFB538EF7438E1080427F022290015D
:1001F60016E0FBA3E0FAA3E0F91203F7FF7E007016
:100206001490000812041064017005438E20801DAE
:10021600538EDF8018EF64804E701290000812042F
:100226001064017005438780800353877F90011611
:10023600E0FBA3E0FAA3E0F99000091204106401C0
:100246007004D2AC8002C2AC9000071204106401A4
:100256007004D29C8002C29C90000B12041054C001
:10026600FFE5A2543F4FF5A290000C120410640162
:10027600700543971080035397EF7F002290011576
:10028600E0640260030203F49000007402F0E4A349
:10029600F0A3F0A3F0A3F0A3F0A3F0900119F0905F
:1002A6000119E0FFC3948074809480501474872FE2
:1002B600F582E43400F583E4F0900119E004F0805F
:1002C600DEE4900119F0900119E0FFC39480748078
:1002D6009480501474072FF582E43400F583E4F01B
:1002E600900119E004F080DE900116E0FBA3E0FA2D
:1002F600A3E0F91203F7FF64C06008EF64406003EF
:100306000203AF90000A1204106401700543B501A0
:10031600800353B5FE1203F764C07005439A8080CC
:1003260003539A7F9000021205A57F807E8D7D5B28
:100336007C001204EF90011A1205D5E4FFFE7D0140
:10034600FC90011AE0F8A3E0F9A3E0FAA3E0FBC3EE
:1003560012058140037F022290011AE0F8A3E0F91A
:10036600A3E0FAA3E0FBC3E49BFFE49AFE740199C1
:10037600FDE498FC90011A1205D5538EEF538EF7C3
:10038600438E0490011AE0FCA3E0FDA3E0FEA3E087
:10039600FF78081205928FD690011AA3A3A3E0F561
:1003A600D753AFFB438E1080037F0222900116E0E5
:1003B600FBA3E0FAA3E0F9900009120410640170AF
:1003C6000543AF01800353AFFE900007120410648B
:1003D600017005439A108003539AEF90000B1204A4
:1003E600105401FFE5BA54FE4FF5BA7F00227F0391
:0103F60022E4
:1012F100900148E02449F8A607E004F0C39428745B
:101301008094804002E4F0900149E0700404F0D23E
:0213110099221F
:10133C001203F7FF600C1212F1740129F9E43AFA66
:03134C0080EE220E
:030023000210E2E6
:1010E200C0E0C083C082C0D075D000C000C006C0BE
:1010F20007309828C29890014CE0702090014AE095
:10110200C39428748094804002E4F090014AE0FF86
:1011120004F074212FF8A699A37405F030992BC21C
:1011220099900148E0FF900147E0FE6F6017744913
:101132002EF8E6F599E004F0C39428748094804078
:1011420009E4F08005900149E4F0D007D006D00010
:09115200D0D0D082D083D0E0326D
:0700030044015B0000000056
:03000B000210617F
:10106100C0E0C0F0C083C082C0D075D000C000C055
:0D10710001C002C003C004C005C006C007D6
:10107E0090015BE0FCA3E0FDA3E0FEA3E02401FFF2
:10108E00E43EFEE43DFDE43CFC90015B1205D57FA1
:10109E00A07E867D017C0090015BE0F8A3E0F9A3C1
:1010AE00E0FAA3E0FBD3120581400E90015B12051E
:0910BE00E100000000B2B2B2B37F
:1010C700D007D006D005D004D003D002D001D0007D
:0B10D700D0D0D082D083D0F0D0E03227
:03001B00020018C8
:03001800B2A6325B
:0300630002001E7A
:03001E00B290326B
:10082900AD07EDD394027480948040037F0122EDDB
:1008390060030208CFC28C90000212041064017098
:1008490004D2A98002C2A9900001120410640170A7
:1008590004D2B98002C2B91203F7FED3940374809B
:10086900948040037F0222E58954FC4EF58990006B
:1008790003120410FF7E0064017003538E7FEF4E54
:100889007003438E80EF64024E7005438904800330
:100899005389FB90000412041064017005438F0111
:1008A9008003538FFE90000512047BE5F0F58C90D0
:1008B900000512047BF58A90000712041064017088
:1008C90002D28C7F0022ED64016003020968C28EA6
:1008D90090000212041064017004D2AB8002C2AB12
:1008E90090000112041064017004D2BB8002C2BBE3
:1008F9001203F7FEC394037480948040037F02229D
:10090900E58954CF4EF589900003120410FF7E004B
:1009190064017003538EBFEF4E7003438E40EF6442
:10092900024E700543894080035389BF9000041229
:10093900041064017005438F028003538FFD9000FA
:100949000512047BE5F0F58D90000512047BF58B0B
:1009590090000712041064017002D28E7F0022ED0C
:10096900640260030209F0538EEF90000212041032
:100979006401700543AF04800353AFFB9000031279
:100989000410FD7C00D394027480948040037F029C
:1009990022ED64014C7003538EFB90000312041086
:1009A9007003438E0490000312041064027005431F
:1009B9008E088003538EF7900004120410640170AE
:1009C90005438F048003538FFB90000512047BFDC0
:1009D900ACF0ECF5D68DD7900007120410640170C5
:0A09E90003438E107F00227F0222DC
:10064800EFD394057480948040037F01221203F74E
:10065800FED394037480948040037F0222EF704499
:10066800EE700B900001120410F45293529412038E
:10067800F76401700B9000011204104293F4529435
:100688001203F7FE6402700A9000011204104293EC
:100698004294EE6403700D900001120410FEF452AF
:1006A80093EE4294EF640170461203F7FE700B90CC
:1006B8000001120410F452915292EE6401700B90F2
:1006C80000011204104291F452921203F76402706E
:1006D8000A900001120410429142921203F7640337
:1006E800700D900001120410FEF45291EE4292EF48
:1006F800640270461203F7FE700B9000011204109A
:10070800F452955296EE6401700B90000112041099
:100718004295F452961203F76402700A900001128F
:100728000410429542961203F76403700D9000017D
:10073800120410FEF45295EE4296EF6403704612CE
:1007480003F7FE700B900001120410F452B152B27C
:10075800EE6401700B90000112041042B1F452B221
:100768001203F76402700A90000112041042B142A9
:10077800B21203F76403700D900001120410FEF426
:1007880052B1EE42B2EF640470461203F7FE700BEA
:10079800900001120410F452B352B4EE6401700BCD
:1007A80090000112041042B3F452B41203F7640229
:1007B800700A90000112041042B342B41203F764A5
:1007C80003700D900001120410FEF452B3EE42B40F
:1007D800EF640570491203F7FF7E00700B9000016B
:1007E800120410F452C952CAEF64014E700B900003
:1007F8000112041042C9F452CA1203F76402700AC3
:1008080090000112041042C942CA1203F76403702F
:100818000D900001120410FFF452C9EF42CA7F0084
:0108280022AD
:0A000E00C2927F061211F0D2922276
:0A136D00C2927F041211F0D2922206
:0D135F00E4C2927F051211F01211ABD29280
:01136C00225E
:1000460090015FEFF0C2927F011211F090015FE024
:07005600FF1211F0D292220B
:0F0CF40090011EEBF0A3EAF0A3E9F0A31205D5DF
:100D030012135FEF20E0F912000EC2927F0212115C
:100D1300F0900121E0FCA3E0FDA3E0FEA3E0FF7857
:100D2300101205921211F0900121E0FCA3E0FDA343
:100D3300E0FEA3E0FF78081205921211F090012162
:100D4300A3A3A3E0FF1211F0E4900127F0A3F09016
:100D53000125E0FEA3E0FFC3900128E09F90012757
:100D6300E09E502790011EE0FBA3E475F0011204FE
:100D730065A9F0FA1203F7FF1211F0900128E004BD
:100D8300F070CC900127E004F080C4D29212135F7C
:040D9300EF20E0F974
:010D97002239
:0F0B5400900129EBF0A3EAF0A3E9F0A31205D575
:100B630090012CA3A3A3E0FFE4C39FFF74019400AF
:100B7300FE900132F0A3EFF0900130E0FCA3E0FD22
:100B8300D39FEC9E5006A3ECF0A3EDF090012CE074
:100B9300FCA3E0FDA3E0FEA3E0FF900132E0FBA392
:100BA300E0900125CBF0A3EBF0900129E0FBA3E05B
:100BB300FAA3E0F9120CF4900130E0FEA3E0FFA3E6
:100BC300E06E7003A3E06F606F900132E0FEA3E07C
:100BD300FF90012AEE8FF012044F90012CE0F8A34E
:100BE300E0F9A3E0FAA3E0FBE4FCFDEB2FFFEA3E10
:100BF300FEED39FDEC38FC90012C1205D590013245
:100C0300E0FEA3E0FFC3900131E09FFF900130E0DD
:100C13009EFEF0A3EFF0D39400EE9401400AA37478
:100C230001F0A3E4F0020B8F900130E0FFA3E0A3F7
:080C3300CFF0A3EFF0020B8FDC
:010C3B002296
:0F0D9800900134EBF0A3EAF0A3E9F0A31205D524
:100DA70012135FEF20E0F9C2927F031211F0900156
:100DB70037E0FCA3E0FDA3E0FEA3E0FF78101205F7
:100DC700921211F0900137E0FCA3E0FDA3E0FEA32F
:100DD700E0FF78081205921211F0900137A3A3A340
:100DE700E0FF1211F0E490013DF0A3F090013BE029
:100DF700FEA3E0FFC390013EE09F90013DE09E50BF
:100E0700271211AB900134E0FBA3E475F001120443
:100E170065A9F0FAEF12043D90013EE004F070CCB2
:0A0E270090013DE004F080C4D29277
:010E3100229E
:060F4D0090014D1205D5D4
:100F530090014DA3A3A3E0A3F090014DE0FCA3E017
:100F6300FDA3E0FEA3E0FF780812059290014D1265
:100F730005D590014DA3A3A3E0900152F090014D3C
:100F8300E0FCA3E0FDA3E0FEA3E0FF7808120592D6
:100F930090014D1205D590014DA3A3A3E0900153F9
:100FA300F012135FEF20E0F912000EC2927F2012BD
:100FB30011F0900153E0FF1211F0900152E0FF1283
:100FC30011F0900151E0FF1211F0D29212135FEF72
:030FD30020E0F922
:010FD60022F8
:060FD7009001541205D543
:100FDD00900154A3A3A3E0A3F0900154E0FCA3E07F
:100FED00FDA3E0FEA3E0FF780812059290015412D4
:100FFD0005D5900154A3A3A3E0900159F09001549D
:10100D00E0FCA3E0FDA3E0FEA3E0FF78081205924B
:10101D009001541205D5900154A3A3A3E090015A59
:10102D00F012135FEF20E0F912000EC2927FD8127A
:10103D0011F090015AE0FF1211F0900159E0FF12EA
:10104D0011F0900158E0FF1211F0D29212135FEFE0
:03105D0020E0F997
:01106000226D
:1000260012135FEF20E0F912000EC2927FC7121181
:0B003600F0D29212135FEF20E0F922DD
:1011F0008F20A2079294C295D295A2069294C2958E
:10120000D295A2059294C295D295A2049294C295C9
:10121000D295A2039294C295D295A2029294C295BD
:10122000D295A2019294C295D295A2009294C295B1
:03123000D2952232
:1011AB00D293D295C295A2939207D295C295A29350
:1011BB009206D295C295A2939205D295C295A2930F
:1011CB009204D295C295A2939203D295C295A29303
:1011DB009202D295C295A2939201D295C295A293F7
:0511EB009200AF20227C
:03000000020EC12C
:0C0EC100787FE4F6D8FD758170020F0800
:1003F700BB010689828A83E0225002E722BBFE0204
:09040700E32289828A83E4932236
:10041000BB010CE58229F582E5833AF583E02250A1
:1004200006E92582F8E622BBFE06E92582F8E222EB
:0D043000E58229F582E5833AF583E4932205
:10043D00BB010689828A83F0225002F722BBFE019E
:02044D00F32298
:10044F00C5F0F8A3E028F0C5F0F8E5821582700238
:06045F001583E038F022D5
:10046500A3F8E0C5F025F0F0E5821582700215834A
:06047500E0C838F0E822A7
:10047B00BB0110E58229F582E5833AF583E0F5F0BF
:10048B00A3E0225009E92582F886F008E622BBFE9C
:10049B000AE92582F8E2F5F008E222E5832AF583E2
:0804AB00E993F5F0A3E99322A7
:1004B30075F008758200EF2FFFEE33FECD33CDCC00
:1004C30033CCC58233C5829BED9AEC99E582984083
:1004D3000CF582EE9BFEED9AFDEC99FC0FD5F0D660
:1004E300E4CEFBE4CDFAE4CCF9A88222B800C1B98A
:1004F3000059BA002DEC8BF084CFCECDFCE5F0CBC8
:10050300F97818EF2FFFEE33FEED33FDEC33FCEB00
:1005130033FB10D703994004EB99FB0FD8E5E4F9BB
:10052300FA227818EF2FFFEE33FEED33FDEC33FCA8
:10053300C933C910D7059BE99A4007EC9BFCE99A9C
:10054300F90FD8E0E4C9FAE4CCFB2275F010EF2FE1
:10055300FFEE33FEED33FDCC33CCC833C810D707E1
:100563009BEC9AE899400AED9BFDEC9AFCE899F81C
:0E0573000FD5F0DAE4CDFBE4CCFAE4C8F922AF
:10058100EB9FF5F0EA9E42F0E99D42F0E89C45F0D0
:010591002247
:10059200E8600FECC313FCED13FDEE13FEEF13FF47
:0305A200D8F1226B
:1005A500BB010DE58229F582E5833AF58302061F35
:1005B5005007E92582F8020612BBFE07E92582F8F5
:1005C50002062BE58229F582E5833AF58302063892
:0C05D500ECF0A3EDF0A3EEF0A3EFF02299
:1005E100A8828583F0D083D0821205F81205F81213
:1005F10005F81205F8E473E493A3C583C5F0C58338
:10060100C8C582C8F0A3C583C5F0C583C8C582C863
:0106110022C6
:100ECD00020C3CE493A3F8E493A34003F68001F2F3
:100EDD0008DFF48029E493A3F85407240CC8C33326
:100EED00C4540F4420C8834004F456800146F6DFF5
:100EFD00E4800B0102040810204080900003E47E82
:100F0D00019360BCA3FF543F30E509541FFEE493E9
:100F1D00A360010ECF54C025E060A840B8E493A3B0
:100F2D00FAE493A3F8E493A3C8C582C8CAC583CADB
:100F3D00F0A3C8C582C8CAC583CADFE9DEE780BE93
:01000A0000F5
:0D061200E6FB08E6F908E6FA08E6CBF82258
:0C061F00E0F8A3E0F9A3E0FAA3E0FB225E
:0D062B00E2FB08E2F908E2FA08E2CBF8224F
:10063800E493F8740193F9740293FA740393FB2218
:00000001FF
